{
  "_format": "hh-sol-artifact-1",
  "contractName": "NFTMarketPlace",
  "sourceName": "contracts/NFTMarketPlace.sol",
  "abi": [
    {
      "inputs": [
        {
          "internalType": "address",
          "name": "_marketItemAddress",
          "type": "address"
        }
      ],
      "stateMutability": "nonpayable",
      "type": "constructor"
    },
    {
      "anonymous": false,
      "inputs": [
        {
          "indexed": true,
          "internalType": "uint256",
          "name": "tokenId",
          "type": "uint256"
        },
        {
          "indexed": true,
          "internalType": "uint256",
          "name": "bidId",
          "type": "uint256"
        },
        {
          "indexed": false,
          "internalType": "uint256",
          "name": "amount",
          "type": "uint256"
        },
        {
          "indexed": false,
          "internalType": "address",
          "name": "bidder",
          "type": "address"
        }
      ],
      "name": "BidAccepted",
      "type": "event"
    },
    {
      "anonymous": false,
      "inputs": [
        {
          "indexed": true,
          "internalType": "uint256",
          "name": "tokenId",
          "type": "uint256"
        },
        {
          "indexed": true,
          "internalType": "uint256",
          "name": "bidId",
          "type": "uint256"
        },
        {
          "indexed": false,
          "internalType": "address",
          "name": "canceller",
          "type": "address"
        }
      ],
      "name": "BidCancelled",
      "type": "event"
    },
    {
      "anonymous": false,
      "inputs": [
        {
          "indexed": true,
          "internalType": "uint256",
          "name": "bidId",
          "type": "uint256"
        },
        {
          "indexed": false,
          "internalType": "uint256",
          "name": "price",
          "type": "uint256"
        },
        {
          "indexed": false,
          "internalType": "address",
          "name": "bidder",
          "type": "address"
        }
      ],
      "name": "BidCreated",
      "type": "event"
    },
    {
      "anonymous": false,
      "inputs": [
        {
          "indexed": false,
          "internalType": "uint256",
          "name": "itemId",
          "type": "uint256"
        }
      ],
      "name": "CancelMarketSale",
      "type": "event"
    },
    {
      "anonymous": false,
      "inputs": [
        {
          "indexed": true,
          "internalType": "uint256",
          "name": "collectionId",
          "type": "uint256"
        },
        {
          "indexed": false,
          "internalType": "uint256",
          "name": "createdOn",
          "type": "uint256"
        },
        {
          "indexed": false,
          "internalType": "address",
          "name": "creator",
          "type": "address"
        }
      ],
      "name": "CollectionCreated",
      "type": "event"
    },
    {
      "anonymous": false,
      "inputs": [
        {
          "indexed": false,
          "internalType": "uint256",
          "name": "itemId",
          "type": "uint256"
        },
        {
          "indexed": false,
          "internalType": "uint256",
          "name": "price",
          "type": "uint256"
        }
      ],
      "name": "CreateMarketSale",
      "type": "event"
    },
    {
      "anonymous": false,
      "inputs": [
        {
          "indexed": false,
          "internalType": "uint256",
          "name": "price",
          "type": "uint256"
        }
      ],
      "name": "Deposit",
      "type": "event"
    },
    {
      "anonymous": false,
      "inputs": [
        {
          "indexed": true,
          "internalType": "uint256",
          "name": "itemId",
          "type": "uint256"
        },
        {
          "indexed": false,
          "internalType": "address",
          "name": "buyer",
          "type": "address"
        },
        {
          "indexed": false,
          "internalType": "address",
          "name": "owner",
          "type": "address"
        },
        {
          "indexed": false,
          "internalType": "uint256",
          "name": "price",
          "type": "uint256"
        }
      ],
      "name": "ItemBought",
      "type": "event"
    },
    {
      "anonymous": false,
      "inputs": [
        {
          "indexed": true,
          "internalType": "uint256",
          "name": "itemId",
          "type": "uint256"
        },
        {
          "indexed": false,
          "internalType": "uint256",
          "name": "price",
          "type": "uint256"
        },
        {
          "indexed": false,
          "internalType": "uint256",
          "name": "collectionId",
          "type": "uint256"
        },
        {
          "indexed": false,
          "internalType": "uint256",
          "name": "createdOn",
          "type": "uint256"
        }
      ],
      "name": "ItemMinted",
      "type": "event"
    },
    {
      "anonymous": false,
      "inputs": [
        {
          "indexed": false,
          "internalType": "uint256",
          "name": "listingFee",
          "type": "uint256"
        }
      ],
      "name": "ListingFeeToOwner",
      "type": "event"
    },
    {
      "anonymous": false,
      "inputs": [
        {
          "indexed": false,
          "internalType": "uint256",
          "name": "newListingFee",
          "type": "uint256"
        }
      ],
      "name": "ListingFeeUpdated",
      "type": "event"
    },
    {
      "anonymous": false,
      "inputs": [
        {
          "indexed": true,
          "internalType": "address",
          "name": "previousOwner",
          "type": "address"
        },
        {
          "indexed": true,
          "internalType": "address",
          "name": "newOwner",
          "type": "address"
        }
      ],
      "name": "OwnershipTransferred",
      "type": "event"
    },
    {
      "inputs": [
        {
          "internalType": "uint256",
          "name": "tokenId",
          "type": "uint256"
        },
        {
          "internalType": "uint256",
          "name": "bidId",
          "type": "uint256"
        }
      ],
      "name": "acceptItemBid",
      "outputs": [],
      "stateMutability": "payable",
      "type": "function"
    },
    {
      "inputs": [
        {
          "internalType": "uint256",
          "name": "tokenId",
          "type": "uint256"
        }
      ],
      "name": "bidMarketItem",
      "outputs": [],
      "stateMutability": "payable",
      "type": "function"
    },
    {
      "inputs": [
        {
          "internalType": "uint256",
          "name": "",
          "type": "uint256"
        }
      ],
      "name": "bidsIds",
      "outputs": [
        {
          "internalType": "uint256",
          "name": "",
          "type": "uint256"
        }
      ],
      "stateMutability": "view",
      "type": "function"
    },
    {
      "inputs": [
        {
          "internalType": "uint256",
          "name": "tokenId",
          "type": "uint256"
        }
      ],
      "name": "buyMarketItem",
      "outputs": [],
      "stateMutability": "payable",
      "type": "function"
    },
    {
      "inputs": [
        {
          "internalType": "uint256",
          "name": "tokenId",
          "type": "uint256"
        },
        {
          "internalType": "uint256",
          "name": "bidId",
          "type": "uint256"
        }
      ],
      "name": "cancelItemBid",
      "outputs": [],
      "stateMutability": "payable",
      "type": "function"
    },
    {
      "inputs": [
        {
          "internalType": "uint256",
          "name": "tokenId",
          "type": "uint256"
        }
      ],
      "name": "cancelSale",
      "outputs": [],
      "stateMutability": "nonpayable",
      "type": "function"
    },
    {
      "inputs": [
        {
          "internalType": "address",
          "name": "creator",
          "type": "address"
        },
        {
          "internalType": "string",
          "name": "image",
          "type": "string"
        }
      ],
      "name": "changeCreatorImage",
      "outputs": [],
      "stateMutability": "nonpayable",
      "type": "function"
    },
    {
      "inputs": [
        {
          "internalType": "address",
          "name": "creator",
          "type": "address"
        },
        {
          "internalType": "string",
          "name": "name",
          "type": "string"
        }
      ],
      "name": "changeCreatorName",
      "outputs": [],
      "stateMutability": "nonpayable",
      "type": "function"
    },
    {
      "inputs": [
        {
          "internalType": "uint256",
          "name": "",
          "type": "uint256"
        }
      ],
      "name": "collections",
      "outputs": [
        {
          "internalType": "uint256",
          "name": "collectionId",
          "type": "uint256"
        },
        {
          "internalType": "string",
          "name": "name",
          "type": "string"
        },
        {
          "internalType": "string",
          "name": "description",
          "type": "string"
        },
        {
          "internalType": "uint256",
          "name": "createdOn",
          "type": "uint256"
        },
        {
          "internalType": "address",
          "name": "creator",
          "type": "address"
        },
        {
          "internalType": "string",
          "name": "image",
          "type": "string"
        }
      ],
      "stateMutability": "view",
      "type": "function"
    },
    {
      "inputs": [
        {
          "internalType": "uint256",
          "name": "",
          "type": "uint256"
        }
      ],
      "name": "collectionsIds",
      "outputs": [
        {
          "internalType": "uint256",
          "name": "",
          "type": "uint256"
        }
      ],
      "stateMutability": "view",
      "type": "function"
    },
    {
      "inputs": [
        {
          "internalType": "string",
          "name": "image",
          "type": "string"
        },
        {
          "internalType": "string",
          "name": "name",
          "type": "string"
        },
        {
          "internalType": "string",
          "name": "description",
          "type": "string"
        }
      ],
      "name": "createCollection",
      "outputs": [],
      "stateMutability": "nonpayable",
      "type": "function"
    },
    {
      "inputs": [
        {
          "internalType": "uint256",
          "name": "tokenId",
          "type": "uint256"
        },
        {
          "internalType": "uint256",
          "name": "_price",
          "type": "uint256"
        }
      ],
      "name": "createSale",
      "outputs": [],
      "stateMutability": "payable",
      "type": "function"
    },
    {
      "inputs": [
        {
          "internalType": "address",
          "name": "",
          "type": "address"
        }
      ],
      "name": "creatorsInfo",
      "outputs": [
        {
          "internalType": "string",
          "name": "name",
          "type": "string"
        },
        {
          "internalType": "string",
          "name": "image",
          "type": "string"
        }
      ],
      "stateMutability": "view",
      "type": "function"
    },
    {
      "inputs": [],
      "name": "getCollectionLength",
      "outputs": [
        {
          "internalType": "uint256",
          "name": "",
          "type": "uint256"
        }
      ],
      "stateMutability": "view",
      "type": "function"
    },
    {
      "inputs": [],
      "name": "getItemBidsLength",
      "outputs": [
        {
          "internalType": "uint256",
          "name": "",
          "type": "uint256"
        }
      ],
      "stateMutability": "view",
      "type": "function"
    },
    {
      "inputs": [],
      "name": "getListingFee",
      "outputs": [
        {
          "internalType": "uint256",
          "name": "",
          "type": "uint256"
        }
      ],
      "stateMutability": "view",
      "type": "function"
    },
    {
      "inputs": [],
      "name": "getLockedBidAmount",
      "outputs": [
        {
          "internalType": "uint256",
          "name": "",
          "type": "uint256"
        }
      ],
      "stateMutability": "view",
      "type": "function"
    },
    {
      "inputs": [],
      "name": "getMarketItemsLength",
      "outputs": [
        {
          "internalType": "uint256",
          "name": "",
          "type": "uint256"
        }
      ],
      "stateMutability": "view",
      "type": "function"
    },
    {
      "inputs": [
        {
          "internalType": "uint256",
          "name": "",
          "type": "uint256"
        },
        {
          "internalType": "uint256",
          "name": "",
          "type": "uint256"
        }
      ],
      "name": "itemBids",
      "outputs": [
        {
          "internalType": "uint256",
          "name": "bidId",
          "type": "uint256"
        },
        {
          "internalType": "uint256",
          "name": "amount",
          "type": "uint256"
        },
        {
          "internalType": "enum INFTMarketPlace.BidStatus",
          "name": "status",
          "type": "uint8"
        },
        {
          "internalType": "address payable",
          "name": "bidder",
          "type": "address"
        }
      ],
      "stateMutability": "view",
      "type": "function"
    },
    {
      "inputs": [
        {
          "internalType": "uint256",
          "name": "",
          "type": "uint256"
        }
      ],
      "name": "marketItems",
      "outputs": [
        {
          "internalType": "uint256",
          "name": "itemId",
          "type": "uint256"
        },
        {
          "internalType": "string",
          "name": "name",
          "type": "string"
        },
        {
          "internalType": "string",
          "name": "description",
          "type": "string"
        },
        {
          "internalType": "uint256",
          "name": "price",
          "type": "uint256"
        },
        {
          "internalType": "uint256",
          "name": "collectionId",
          "type": "uint256"
        },
        {
          "internalType": "uint256",
          "name": "createdOn",
          "type": "uint256"
        },
        {
          "internalType": "enum INFTMarketPlace.ItemListingStatus",
          "name": "status",
          "type": "uint8"
        }
      ],
      "stateMutability": "view",
      "type": "function"
    },
    {
      "inputs": [
        {
          "internalType": "uint256",
          "name": "",
          "type": "uint256"
        }
      ],
      "name": "marketItemsIds",
      "outputs": [
        {
          "internalType": "uint256",
          "name": "",
          "type": "uint256"
        }
      ],
      "stateMutability": "view",
      "type": "function"
    },
    {
      "inputs": [
        {
          "internalType": "string",
          "name": "tokenURI",
          "type": "string"
        },
        {
          "internalType": "string",
          "name": "name",
          "type": "string"
        },
        {
          "internalType": "string",
          "name": "description",
          "type": "string"
        },
        {
          "internalType": "uint256",
          "name": "collectionId",
          "type": "uint256"
        }
      ],
      "name": "mintToken",
      "outputs": [
        {
          "internalType": "uint256",
          "name": "",
          "type": "uint256"
        }
      ],
      "stateMutability": "payable",
      "type": "function"
    },
    {
      "inputs": [],
      "name": "owner",
      "outputs": [
        {
          "internalType": "address",
          "name": "",
          "type": "address"
        }
      ],
      "stateMutability": "view",
      "type": "function"
    },
    {
      "inputs": [],
      "name": "renounceOwnership",
      "outputs": [],
      "stateMutability": "nonpayable",
      "type": "function"
    },
    {
      "inputs": [],
      "name": "transferListingFee",
      "outputs": [],
      "stateMutability": "payable",
      "type": "function"
    },
    {
      "inputs": [
        {
          "internalType": "address",
          "name": "newOwner",
          "type": "address"
        }
      ],
      "name": "transferOwnership",
      "outputs": [],
      "stateMutability": "nonpayable",
      "type": "function"
    },
    {
      "inputs": [
        {
          "internalType": "uint256",
          "name": "_listingFee",
          "type": "uint256"
        }
      ],
      "name": "updateListingFee",
      "outputs": [],
      "stateMutability": "payable",
      "type": "function"
    },
    {
      "stateMutability": "payable",
      "type": "receive"
    }
  ],
  "bytecode": "0x60a060405260006005556658d15e1762800060065560006007553480156200002657600080fd5b5060405162002b3d38038062002b3d8339810160408190526200004991620000cb565b6200005d6200005762000077565b6200007b565b6001805560601b6001600160601b031916608052620000fb565b3390565b600080546001600160a01b038381166001600160a01b0319831681178455604051919092169283917f8be0079c531659141344cd1fd0a4f28419497f9722a3daafe3b4186f6b6457e09190a35050565b600060208284031215620000dd578081fd5b81516001600160a01b0381168114620000f4578182fd5b9392505050565b60805160601c6129f26200014b600039600081816106100152818161072401528181610a1c01528181610d3501528181610ed4015281816110ab0152818161135a015261159f01526129f26000f3fe6080604052600436106101a05760003560e01c806398373d02116100ec578063cd5a5bfd1161008a578063ee29b05811610064578063ee29b05814610473578063f2fde38b14610486578063f79d91ae146104a6578063fdbda0ec146104b9576101de565b8063cd5a5bfd1461042b578063e7a2d22b14610433578063ece86c2114610453576101de565b8063b8fe6abe116100c6578063b8fe6abe146103c1578063bd94b005146103d6578063be059c97146103f6578063c8c39aeb14610416576101de565b806398373d021461037b578063b4a8e0a91461039b578063b4eef734146103ae576101de565b806353c479db1161015957806375d4c7fa1161013357806375d4c7fa146103035780637f619390146103315780638da5cb5b1461034657806392ce308c14610368576101de565b806353c479db146102bb5780636019061b146102db578063715018a6146102ee576101de565b8063108409cc146101e3578063229af4e71461020e578063351901c31461023e5780633fe83db114610253578063417b2dda1461027357806351f28e1414610288576101de565b366101de577f4d6ce1e535dbade1c23defba91e23b8f791ce5edc0cc320257a2b364e4e38426346040516101d491906127cb565b60405180910390a1005b600080fd5b3480156101ef57600080fd5b506101f86104eb565b60405161020591906127cb565b60405180910390f35b34801561021a57600080fd5b5061022e6102293660046122b2565b61053c565b60405161020594939291906128bd565b61025161024c36600461229a565b61057b565b005b34801561025f57600080fd5b506101f861026e36600461229a565b610813565b34801561027f57600080fd5b506101f8610834565b34801561029457600080fd5b506102a86102a336600461229a565b61083a565b604051610205979695949392919061284d565b3480156102c757600080fd5b506102516102d63660046120a9565b610989565b6102516102e93660046122b2565b6109da565b3480156102fa57600080fd5b50610251610b96565b34801561030f57600080fd5b5061032361031e36600461206a565b610be1565b60405161020592919061239c565b34801561033d57600080fd5b506101f8610d0d565b34801561035257600080fd5b5061035b610d13565b604051610205919061231e565b6102516103763660046122b2565b610d22565b34801561038757600080fd5b506101f861039636600461229a565b611006565b6101f86103a9366004612192565b611016565b6102516103bc36600461229a565b6112d5565b3480156103cd57600080fd5b506101f8611557565b3480156103e257600080fd5b506102516103f136600461229a565b61155d565b34801561040257600080fd5b506102516104113660046120a9565b611708565b34801561042257600080fd5b506101f8611756565b61025161175c565b34801561043f57600080fd5b506101f861044e36600461229a565b611845565b34801561045f57600080fd5b5061025161046e3660046120fc565b611855565b6102516104813660046122b2565b611a54565b34801561049257600080fd5b506102516104a136600461206a565b611bea565b6102516104b436600461229a565b611c5b565b3480156104c557600080fd5b506104d96104d436600461229a565b611cda565b604051610205969594939291906127eb565b60006104f5611eb5565b6001600160a01b0316610506610d13565b6001600160a01b0316146105355760405162461bcd60e51b815260040161052c906126cc565b60405180910390fd5b5060055490565b600a60209081526000928352604080842090915290825290208054600182015460029092015490919060ff81169061010090046001600160a01b031684565b806000808281526009602052604090206006015460ff1660018111156105b157634e487b7160e01b600052602160045260246000fd5b146105ce5760405162461bcd60e51b815260040161052c906124cd565b600260015414156105f15760405162461bcd60e51b815260040161052c90612743565b60026001556040516331a9108f60e11b81526000906001600160a01b037f00000000000000000000000000000000000000000000000000000000000000001690636352211e906106459086906004016127cb565b60206040518083038186803b15801561065d57600080fd5b505afa158015610671573d6000803e3d6000fd5b505050506040513d601f19601f82011682018060405250810190610695919061208d565b90506001600160a01b0381163314156106c05760405162461bcd60e51b815260040161052c9061256b565b60008381526009602052604090206003015434146106f05760405162461bcd60e51b815260040161052c9061267a565b60008381526009602052604080822060038101929092556006909101805460ff19166001179055516323b872dd60e01b81527f00000000000000000000000000000000000000000000000000000000000000006001600160a01b0316906323b872dd9061076590849033908890600401612332565b600060405180830381600087803b15801561077f57600080fd5b505af1158015610793573d6000803e3d6000fd5b50506040516001600160a01b03841692503480156108fc029250906000818181858888f193505050501580156107cd573d6000803e3d6000fd5b50827f2aa91d32ed82c3bc263c0523e6d7ac2d014506daca62bf306caea7e0e497c2d433833460405161080293929190612332565b60405180910390a250506001805550565b600e818154811061082357600080fd5b600091825260209091200154905081565b600e5490565b6009602052600090815260409020805460018201805491929161085c9061292a565b80601f01602080910402602001604051908101604052809291908181526020018280546108889061292a565b80156108d55780601f106108aa576101008083540402835291602001916108d5565b820191906000526020600020905b8154815290600101906020018083116108b857829003601f168201915b5050505050908060020180546108ea9061292a565b80601f01602080910402602001604051908101604052809291908181526020018280546109169061292a565b80156109635780601f1061093857610100808354040283529160200191610963565b820191906000526020600020905b81548152906001019060200180831161094657829003601f168201915b505050506003830154600484015460058501546006909501549394919390925060ff1687565b6001600160a01b03831633146109b15760405162461bcd60e51b815260040161052c90612701565b6001600160a01b0383166000908152600b602052604090206109d4908383611f16565b50505050565b60008281526009602052604090205482908114610a095760405162461bcd60e51b815260040161052c90612600565b6040516331a9108f60e11b8152839033907f00000000000000000000000000000000000000000000000000000000000000006001600160a01b031690636352211e90610a599085906004016127cb565b60206040518083038186803b158015610a7157600080fd5b505afa158015610a85573d6000803e3d6000fd5b505050506040513d601f19601f82011682018060405250810190610aa9919061208d565b6001600160a01b031614610acf5760405162461bcd60e51b815260040161052c906123c1565b6006543414610af05760405162461bcd60e51b815260040161052c9061277a565b60026001541415610b135760405162461bcd60e51b815260040161052c90612743565b60026001819055503460076000828254610b2d91906128fb565b90915550506000848152600960205260409081902060038101859055600601805460ff19169055517f6189b36f4038170e4c6d5d2481c1316a453b30a6f4d887d8e291c274d1f891ee90610b8490869086906128af565b60405180910390a15050600180555050565b610b9e611eb5565b6001600160a01b0316610baf610d13565b6001600160a01b031614610bd55760405162461bcd60e51b815260040161052c906126cc565b610bdf6000611eb9565b565b600b60205260009081526040902080548190610bfc9061292a565b80601f0160208091040260200160405190810160405280929190818152602001828054610c289061292a565b8015610c755780601f10610c4a57610100808354040283529160200191610c75565b820191906000526020600020905b815481529060010190602001808311610c5857829003601f168201915b505050505090806001018054610c8a9061292a565b80601f0160208091040260200160405190810160405280929190818152602001828054610cb69061292a565b8015610d035780601f10610cd857610100808354040283529160200191610d03565b820191906000526020600020905b815481529060010190602001808311610ce657829003601f168201915b5050505050905082565b600d5490565b6000546001600160a01b031690565b6040516331a9108f60e11b8152829033907f00000000000000000000000000000000000000000000000000000000000000006001600160a01b031690636352211e90610d729085906004016127cb565b60206040518083038186803b158015610d8a57600080fd5b505afa158015610d9e573d6000803e3d6000fd5b505050506040513d601f19601f82011682018060405250810190610dc2919061208d565b6001600160a01b031614610de85760405162461bcd60e51b815260040161052c906123c1565b6000838152600a60209081526040808320858452909152902054839083908114610e245760405162461bcd60e51b815260040161052c90612450565b60026001541415610e475760405162461bcd60e51b815260040161052c90612743565b600260018181556000878152600a602090815260408083208984529091529020918201549101546005546101009092046001600160a01b031691811115610ea05760405162461bcd60e51b815260040161052c9061250e565b60008781526009602052604080822060038101929092556006909101805460ff19166001179055516323b872dd60e01b81527f00000000000000000000000000000000000000000000000000000000000000006001600160a01b0316906323b872dd90610f1590339086908c90600401612332565b600060405180830381600087803b158015610f2f57600080fd5b505af1158015610f43573d6000803e3d6000fd5b5050506000888152600a602090815260408083208a84529091528120600201805460ff1916905560058054849350909190610f7f908490612913565b90915550610f8f90508147612913565b50604051339082156108fc029083906000818181858888f19350505050158015610fbd573d6000803e3d6000fd5b5085877f9a6c30aa52e2150f2003a14c3eb666c1ae3dcc8661c51e2ab48ca88eed07823c8385604051610ff19291906127d4565b60405180910390a35050600180555050505050565b600c818154811061082357600080fd5b60006002600154141561103b5760405162461bcd60e51b815260040161052c90612743565b60026001556000828152600860205260409020600401546001600160a01b031633146110795760405162461bcd60e51b815260040161052c90612637565b6110836003611f09565b600061108f6003611f12565b6040516320cdebf760e21b815290915042906001600160a01b037f00000000000000000000000000000000000000000000000000000000000000001690638337afdc906110e490339086908e90600401612356565b600060405180830381600087803b1580156110fe57600080fd5b505af1158015611112573d6000803e3d6000fd5b505050506040518060e0016040528083815260200189898080601f016020809104026020016040519081016040528093929190818152602001838380828437600092019190915250505090825250604080516020601f8a01819004810282018101909252888152918101919089908990819084018382808284376000920182905250938552505050602082015260408101869052606081018390526080016001905260008381526009602090815260409091208251815582820151805191926111e392600185019290910190611f9a565b50604082015180516111ff916002840191602090910190611f9a565b50606082015160038201556080820151600482015560a0820151600582015560c082015160068201805460ff19166001838181111561124e57634e487b7160e01b600052602160045260246000fd5b021790555050600d805460018101825560009182527fd7b6990105719101dabeb77144f2a3385c8033acd3af97e9423a695e81ad1eb5018490556040518492507f20b783292d66c024794198f13faa7e7671cc3d2323d1c787416e8dfe266fdfec916112bd9188908690612386565b60405180910390a25060018055979650505050505050565b600081815260096020526040902054819081146113045760405162461bcd60e51b815260040161052c90612600565b600260015414156113275760405162461bcd60e51b815260040161052c90612743565b6002600155346113495760405162461bcd60e51b815260040161052c906125b5565b6040516331a9108f60e11b815233907f00000000000000000000000000000000000000000000000000000000000000006001600160a01b031690636352211e906113979086906004016127cb565b60206040518083038186803b1580156113af57600080fd5b505afa1580156113c3573d6000803e3d6000fd5b505050506040513d601f19601f820116820180604052508101906113e7919061208d565b6001600160a01b0316141561140e5760405162461bcd60e51b815260040161052c90612406565b6114186004611f09565b60006114246004611f12565b9050346005600082825461143891906128fb565b90915550506040805160808101825282815234602082015290810160028152336020918201526000858152600a82526040808220858352835290819020835181559183015160018084019190915590830151600280840180549293909260ff19169184908111156114b957634e487b7160e01b600052602160045260246000fd5b021790555060609190910151600290910180546001600160a01b0390921661010002610100600160a81b0319909216919091179055600e80546001810182556000919091527fbb7b4a454dc3493923482f07822329ed19e8244eff582cc204f8554c3620c3fd0181905560405181907f8335194a78ed1f7eef3da42ceddf79ade8dc1d12fbb0623324b46c076cae60e89061080290349033906127d4565b60065490565b6000818152600960205260409020548190811461158c5760405162461bcd60e51b815260040161052c90612600565b6040516331a9108f60e11b8152829033907f00000000000000000000000000000000000000000000000000000000000000006001600160a01b031690636352211e906115dc9085906004016127cb565b60206040518083038186803b1580156115f457600080fd5b505afa158015611608573d6000803e3d6000fd5b505050506040513d601f19601f8201168201806040525081019061162c919061208d565b6001600160a01b0316146116525760405162461bcd60e51b815260040161052c906123c1565b826000808281526009602052604090206006015460ff16600181111561168857634e487b7160e01b600052602160045260246000fd5b146116a55760405162461bcd60e51b815260040161052c906124cd565b60008481526009602052604080822060038101929092556006909101805460ff19166001179055517f8fa1bb7b99ca89bcbb44993cdfed439877555de6e6606cee547d631434b7e181906116fa9086906127cb565b60405180910390a150505050565b6001600160a01b03831633146117305760405162461bcd60e51b815260040161052c90612701565b6001600160a01b0383166000908152600b602052604090206109d4906001018383611f16565b600c5490565b611764611eb5565b6001600160a01b0316611775610d13565b6001600160a01b03161461179b5760405162461bcd60e51b815260040161052c906126cc565b600260015414156117be5760405162461bcd60e51b815260040161052c90612743565b60026001556007805460009091556117d68147612913565b50604051339082156108fc029083906000818181858888f19350505050158015611804573d6000803e3d6000fd5b507f4e60501f434af3840e3d76dabba18982cf1ff93cad68dfa8daebca971baa2a1a60075460405161183691906127cb565b60405180910390a15060018055565b600d818154811061082357600080fd5b61185f6002611f09565b600061186b6002611f12565b905060004290506040518060c0016040528083815260200187878080601f016020809104026020016040519081016040528093929190818152602001838380828437600092019190915250505090825250604080516020601f8801819004810282018101909252868152918101919087908790819084018382808284376000920191909152505050908252506020808201849052336040808401919091528051601f8c018390048302810183019091528a8152606090920191908b908b908190840183828082843760009201829052509390945250508481526008602090815260409091208351815583820151805191935061196e926001850192910190611f9a565b506040820151805161198a916002840191602090910190611f9a565b506060820151600382015560808201516004820180546001600160a01b0319166001600160a01b0390921691909117905560a082015180516119d6916005840191602090910190611f9a565b5050600c80546001810182556000919091527fdf6966c971051c3d54ec59162606531493a51404a002842f56009d7e5cf4a8c7018390555060405182907f15f0768ddb29abfbb7cb3b54a0f082e5b441cf04715c8cb8226cc866fbfbba5b90611a4290849033906127d4565b60405180910390a25050505050505050565b60008281526009602052604090205482908114611a835760405162461bcd60e51b815260040161052c90612600565b6000838152600a60209081526040808320858452909152902054839083908114611abf5760405162461bcd60e51b815260040161052c90612450565b60026001541415611ae25760405162461bcd60e51b815260040161052c90612743565b600260018181556000878152600a602090815260408083208984529091529020918201549101546005546101009092046001600160a01b031691811115611b3b5760405162461bcd60e51b815260040161052c9061250e565b8060056000828254611b4d9190612913565b90915550611b5d90508147612913565b506000878152600a60209081526040808320898452909152808220600201805460ff19166001179055516001600160a01b038416916108fc841502918491818181858888f19350505050158015611bb8573d6000803e3d6000fd5b5085877f26ad9a48a900ea965adb7d7fd3f9552c907540683bac6687640cac5a933b9c6633604051610ff1919061231e565b611bf2611eb5565b6001600160a01b0316611c03610d13565b6001600160a01b031614611c295760405162461bcd60e51b815260040161052c906126cc565b6001600160a01b038116611c4f5760405162461bcd60e51b815260040161052c90612487565b611c5881611eb9565b50565b611c63611eb5565b6001600160a01b0316611c74610d13565b6001600160a01b031614611c9a5760405162461bcd60e51b815260040161052c906126cc565b60068190556040517f5fb4654f1efe30c6141eaa6855ffcb27e0b361d899b05e21b1a4d0b3e71e14db90611ccf9083906127cb565b60405180910390a150565b60086020526000908152604090208054600182018054919291611cfc9061292a565b80601f0160208091040260200160405190810160405280929190818152602001828054611d289061292a565b8015611d755780601f10611d4a57610100808354040283529160200191611d75565b820191906000526020600020905b815481529060010190602001808311611d5857829003601f168201915b505050505090806002018054611d8a9061292a565b80601f0160208091040260200160405190810160405280929190818152602001828054611db69061292a565b8015611e035780601f10611dd857610100808354040283529160200191611e03565b820191906000526020600020905b815481529060010190602001808311611de657829003601f168201915b5050505060038301546004840154600585018054949592946001600160a01b03909216935090611e329061292a565b80601f0160208091040260200160405190810160405280929190818152602001828054611e5e9061292a565b8015611eab5780601f10611e8057610100808354040283529160200191611eab565b820191906000526020600020905b815481529060010190602001808311611e8e57829003601f168201915b5050505050905086565b3390565b600080546001600160a01b038381166001600160a01b0319831681178455604051919092169283917f8be0079c531659141344cd1fd0a4f28419497f9722a3daafe3b4186f6b6457e09190a35050565b80546001019055565b5490565b828054611f229061292a565b90600052602060002090601f016020900481019282611f445760008555611f8a565b82601f10611f5d5782800160ff19823516178555611f8a565b82800160010185558215611f8a579182015b82811115611f8a578235825591602001919060010190611f6f565b50611f9692915061200e565b5090565b828054611fa69061292a565b90600052602060002090601f016020900481019282611fc85760008555611f8a565b82601f10611fe157805160ff1916838001178555611f8a565b82800160010185558215611f8a579182015b82811115611f8a578251825591602001919060010190611ff3565b5b80821115611f96576000815560010161200f565b60008083601f840112612034578081fd5b50813567ffffffffffffffff81111561204b578182fd5b60208301915083602082850101111561206357600080fd5b9250929050565b60006020828403121561207b578081fd5b8135612086816129a7565b9392505050565b60006020828403121561209e578081fd5b8151612086816129a7565b6000806000604084860312156120bd578182fd5b83356120c8816129a7565b9250602084013567ffffffffffffffff8111156120e3578283fd5b6120ef86828701612023565b9497909650939450505050565b60008060008060008060608789031215612114578182fd5b863567ffffffffffffffff8082111561212b578384fd5b6121378a838b01612023565b9098509650602089013591508082111561214f578384fd5b61215b8a838b01612023565b90965094506040890135915080821115612173578384fd5b5061218089828a01612023565b979a9699509497509295939492505050565b600080600080600080608087890312156121aa578182fd5b863567ffffffffffffffff808211156121c1578384fd5b818901915089601f8301126121d4578384fd5b8135818111156121e6576121e6612991565b604051601f8201601f19908116603f0116810190838211818310171561220e5761220e612991565b816040528281528c6020848701011115612226578687fd5b826020860160208301378660208483010152809a505050506020890135915080821115612251578384fd5b61225d8a838b01612023565b90975095506040890135915080821115612275578384fd5b5061228289828a01612023565b979a9699509497949695606090950135949350505050565b6000602082840312156122ab578081fd5b5035919050565b600080604083850312156122c4578182fd5b50508035926020909101359150565b60008151808452815b818110156122f8576020818501810151868301820152016122dc565b818111156123095782602083870101525b50601f01601f19169290920160200192915050565b6001600160a01b0391909116815260200190565b6001600160a01b039384168152919092166020820152604081019190915260600190565b600060018060a01b03851682528360208301526060604083015261237d60608301846122d3565b95945050505050565b9283526020830191909152604082015260600190565b6000604082526123af60408301856122d3565b828103602084015261237d81856122d3565b60208082526025908201527f4d61726b6574706c6163653a206974656d206973206e6f74206f776e656420626040820152647920796f7560d81b606082015260800190565b6020808252602a908201527f4d61726b6574706c6163653a20796f752063616e206e6f742062696420796f7560408201526972206f776e206974656d60b01b606082015260800190565b60208082526018908201527f4d61726b6574706c6163653a206e6f2073756368206269640000000000000000604082015260600190565b60208082526026908201527f4f776e61626c653a206e6577206f776e657220697320746865207a65726f206160408201526564647265737360d01b606082015260800190565b60208082526021908201527f4d61726b6574706c6163653a206974656d206973206e6f7420666f722073616c6040820152606560f81b606082015260800190565b6020808252603c908201527f4d61726b6574706c6163653a205472616e73616374696f6e206661696c65642e60408201527f20436f6e747261637420686173206e6f7420656e6f7567682077656900000000606082015260800190565b6020808252602a908201527f4d61726b6574706c6163653a20796f752063616e206e6f742062757920796f7560408201526972206f776e206974656d60b01b606082015260800190565b6020808252602b908201527f4d61726b6574706c6163653a206f66666572206d757374206265206174206c6560408201526a617374206f6e652077656960a81b606082015260800190565b60208082526019908201527f4d61726b6574706c6163653a206e6f2073756368206974656d00000000000000604082015260600190565b60208082526023908201527f4d61726b6574706c6163653a206e6f20636f6c6c656374696f6e206f6620796f60408201526275727360e81b606082015260800190565b60208082526032908201527f4d61726b6574706c6163653a20616d6f756e74206d75737420626520657175616040820152716c20746f206c697374696e6720707269636560701b606082015260800190565b6020808252818101527f4f776e61626c653a2063616c6c6572206973206e6f7420746865206f776e6572604082015260600190565b60208082526022908201527f4d61726b6574706c6163653a206e616d65206e6f74206f776e656420627920796040820152616f7560f01b606082015260800190565b6020808252601f908201527f5265656e7472616e637947756172643a207265656e7472616e742063616c6c00604082015260600190565b60208082526031908201527f4d61726b6574706c6163653a207072696365206d75737420626520657175616c60408201527020746f206c697374696e6720707269636560781b606082015260800190565b90815260200190565b9182526001600160a01b0316602082015260400190565b600087825260c0602083015261280460c08301886122d3565b828103604084015261281681886122d3565b606084018790526001600160a01b038616608085015283810360a0850152905061284081856122d3565b9998505050505050505050565b600088825260e0602083015261286660e08301896122d3565b828103604084015261287881896122d3565b9150508560608301528460808301528360a08301526002831061289d5761289d61297b565b8260c083015298975050505050505050565b918252602082015260400190565b8481526020810184905260808101600384106128db576128db61297b565b60408201939093526001600160a01b039190911660609091015292915050565b6000821982111561290e5761290e612965565b500190565b60008282101561292557612925612965565b500390565b60028104600182168061293e57607f821691505b6020821081141561295f57634e487b7160e01b600052602260045260246000fd5b50919050565b634e487b7160e01b600052601160045260246000fd5b634e487b7160e01b600052602160045260246000fd5b634e487b7160e01b600052604160045260246000fd5b6001600160a01b0381168114611c5857600080fdfea26469706673582212207b37f02114a4ab68d81f5f4fe830f7128a1b0ec3eaa039c326fbe9f2583c89dc64736f6c63430008010033",
  "linkReferences": {},
  "deployedLinkReferences": {}
}