{
  "_format": "hh-sol-artifact-1",
  "contractName": "NFTMarketPlace",
  "sourceName": "contracts/NFTMarketPlace.sol",
  "abi": [
    {
      "inputs": [
        {
          "internalType": "address",
          "name": "_marketItemAddress",
          "type": "address"
        }
      ],
      "stateMutability": "nonpayable",
      "type": "constructor"
    },
    {
      "anonymous": false,
      "inputs": [
        {
          "indexed": true,
          "internalType": "uint256",
          "name": "tokenId",
          "type": "uint256"
        },
        {
          "indexed": true,
          "internalType": "uint256",
          "name": "bidId",
          "type": "uint256"
        },
        {
          "indexed": false,
          "internalType": "uint256",
          "name": "amount",
          "type": "uint256"
        },
        {
          "indexed": false,
          "internalType": "address",
          "name": "bidder",
          "type": "address"
        }
      ],
      "name": "BidAccepted",
      "type": "event"
    },
    {
      "anonymous": false,
      "inputs": [
        {
          "indexed": true,
          "internalType": "uint256",
          "name": "tokenId",
          "type": "uint256"
        },
        {
          "indexed": true,
          "internalType": "uint256",
          "name": "bidId",
          "type": "uint256"
        },
        {
          "indexed": false,
          "internalType": "address",
          "name": "canceller",
          "type": "address"
        }
      ],
      "name": "BidCancelled",
      "type": "event"
    },
    {
      "anonymous": false,
      "inputs": [
        {
          "indexed": true,
          "internalType": "uint256",
          "name": "bidId",
          "type": "uint256"
        },
        {
          "indexed": false,
          "internalType": "uint256",
          "name": "price",
          "type": "uint256"
        },
        {
          "indexed": false,
          "internalType": "address",
          "name": "bidder",
          "type": "address"
        }
      ],
      "name": "BidCreated",
      "type": "event"
    },
    {
      "anonymous": false,
      "inputs": [
        {
          "indexed": false,
          "internalType": "uint256",
          "name": "itemId",
          "type": "uint256"
        }
      ],
      "name": "CancelMarketSale",
      "type": "event"
    },
    {
      "anonymous": false,
      "inputs": [
        {
          "indexed": true,
          "internalType": "uint256",
          "name": "collectionId",
          "type": "uint256"
        },
        {
          "indexed": false,
          "internalType": "uint256",
          "name": "createdOn",
          "type": "uint256"
        },
        {
          "indexed": false,
          "internalType": "address",
          "name": "creator",
          "type": "address"
        }
      ],
      "name": "CollectionCreated",
      "type": "event"
    },
    {
      "anonymous": false,
      "inputs": [
        {
          "indexed": false,
          "internalType": "uint256",
          "name": "itemId",
          "type": "uint256"
        },
        {
          "indexed": false,
          "internalType": "uint256",
          "name": "price",
          "type": "uint256"
        }
      ],
      "name": "CreateMarketSale",
      "type": "event"
    },
    {
      "anonymous": false,
      "inputs": [
        {
          "indexed": false,
          "internalType": "uint256",
          "name": "price",
          "type": "uint256"
        }
      ],
      "name": "Deposit",
      "type": "event"
    },
    {
      "anonymous": false,
      "inputs": [
        {
          "indexed": true,
          "internalType": "uint256",
          "name": "itemId",
          "type": "uint256"
        },
        {
          "indexed": false,
          "internalType": "address",
          "name": "buyer",
          "type": "address"
        },
        {
          "indexed": false,
          "internalType": "address",
          "name": "owner",
          "type": "address"
        },
        {
          "indexed": false,
          "internalType": "uint256",
          "name": "price",
          "type": "uint256"
        }
      ],
      "name": "ItemBought",
      "type": "event"
    },
    {
      "anonymous": false,
      "inputs": [
        {
          "indexed": true,
          "internalType": "uint256",
          "name": "itemId",
          "type": "uint256"
        },
        {
          "indexed": false,
          "internalType": "uint256",
          "name": "price",
          "type": "uint256"
        },
        {
          "indexed": false,
          "internalType": "uint256",
          "name": "collectionId",
          "type": "uint256"
        },
        {
          "indexed": false,
          "internalType": "uint256",
          "name": "createdOn",
          "type": "uint256"
        }
      ],
      "name": "ItemMinted",
      "type": "event"
    },
    {
      "anonymous": false,
      "inputs": [
        {
          "indexed": false,
          "internalType": "uint256",
          "name": "listingFee",
          "type": "uint256"
        }
      ],
      "name": "ListingFeeToOwner",
      "type": "event"
    },
    {
      "anonymous": false,
      "inputs": [
        {
          "indexed": false,
          "internalType": "uint256",
          "name": "newListingFee",
          "type": "uint256"
        }
      ],
      "name": "ListingFeeUpdated",
      "type": "event"
    },
    {
      "anonymous": false,
      "inputs": [
        {
          "indexed": true,
          "internalType": "address",
          "name": "previousOwner",
          "type": "address"
        },
        {
          "indexed": true,
          "internalType": "address",
          "name": "newOwner",
          "type": "address"
        }
      ],
      "name": "OwnershipTransferred",
      "type": "event"
    },
    {
      "inputs": [
        {
          "internalType": "uint256",
          "name": "tokenId",
          "type": "uint256"
        },
        {
          "internalType": "uint256",
          "name": "bidId",
          "type": "uint256"
        }
      ],
      "name": "acceptItemBid",
      "outputs": [],
      "stateMutability": "payable",
      "type": "function"
    },
    {
      "inputs": [
        {
          "internalType": "uint256",
          "name": "tokenId",
          "type": "uint256"
        }
      ],
      "name": "bidMarketItem",
      "outputs": [],
      "stateMutability": "payable",
      "type": "function"
    },
    {
      "inputs": [
        {
          "internalType": "uint256",
          "name": "",
          "type": "uint256"
        }
      ],
      "name": "bidsIds",
      "outputs": [
        {
          "internalType": "uint256",
          "name": "",
          "type": "uint256"
        }
      ],
      "stateMutability": "view",
      "type": "function"
    },
    {
      "inputs": [
        {
          "internalType": "uint256",
          "name": "tokenId",
          "type": "uint256"
        }
      ],
      "name": "buyMarketItem",
      "outputs": [],
      "stateMutability": "payable",
      "type": "function"
    },
    {
      "inputs": [
        {
          "internalType": "uint256",
          "name": "tokenId",
          "type": "uint256"
        },
        {
          "internalType": "uint256",
          "name": "bidId",
          "type": "uint256"
        }
      ],
      "name": "cancelItemBid",
      "outputs": [],
      "stateMutability": "payable",
      "type": "function"
    },
    {
      "inputs": [
        {
          "internalType": "uint256",
          "name": "tokenId",
          "type": "uint256"
        }
      ],
      "name": "cancelSale",
      "outputs": [],
      "stateMutability": "nonpayable",
      "type": "function"
    },
    {
      "inputs": [
        {
          "internalType": "uint256",
          "name": "",
          "type": "uint256"
        }
      ],
      "name": "collections",
      "outputs": [
        {
          "internalType": "uint256",
          "name": "collectionId",
          "type": "uint256"
        },
        {
          "internalType": "string",
          "name": "name",
          "type": "string"
        },
        {
          "internalType": "string",
          "name": "description",
          "type": "string"
        },
        {
          "internalType": "uint256",
          "name": "createdOn",
          "type": "uint256"
        },
        {
          "internalType": "address",
          "name": "creator",
          "type": "address"
        },
        {
          "internalType": "string",
          "name": "image",
          "type": "string"
        }
      ],
      "stateMutability": "view",
      "type": "function"
    },
    {
      "inputs": [
        {
          "internalType": "uint256",
          "name": "",
          "type": "uint256"
        }
      ],
      "name": "collectionsIds",
      "outputs": [
        {
          "internalType": "uint256",
          "name": "",
          "type": "uint256"
        }
      ],
      "stateMutability": "view",
      "type": "function"
    },
    {
      "inputs": [
        {
          "internalType": "string",
          "name": "image",
          "type": "string"
        },
        {
          "internalType": "string",
          "name": "name",
          "type": "string"
        },
        {
          "internalType": "string",
          "name": "description",
          "type": "string"
        }
      ],
      "name": "createCollection",
      "outputs": [],
      "stateMutability": "nonpayable",
      "type": "function"
    },
    {
      "inputs": [
        {
          "internalType": "uint256",
          "name": "tokenId",
          "type": "uint256"
        },
        {
          "internalType": "uint256",
          "name": "_price",
          "type": "uint256"
        }
      ],
      "name": "createSale",
      "outputs": [],
      "stateMutability": "payable",
      "type": "function"
    },
    {
      "inputs": [],
      "name": "getCollectionLength",
      "outputs": [
        {
          "internalType": "uint256",
          "name": "",
          "type": "uint256"
        }
      ],
      "stateMutability": "view",
      "type": "function"
    },
    {
      "inputs": [],
      "name": "getItemBidsLength",
      "outputs": [
        {
          "internalType": "uint256",
          "name": "",
          "type": "uint256"
        }
      ],
      "stateMutability": "view",
      "type": "function"
    },
    {
      "inputs": [],
      "name": "getListingPrice",
      "outputs": [
        {
          "internalType": "uint256",
          "name": "",
          "type": "uint256"
        }
      ],
      "stateMutability": "view",
      "type": "function"
    },
    {
      "inputs": [],
      "name": "getLockedBidAmount",
      "outputs": [
        {
          "internalType": "uint256",
          "name": "",
          "type": "uint256"
        }
      ],
      "stateMutability": "view",
      "type": "function"
    },
    {
      "inputs": [],
      "name": "getMarketItemsLength",
      "outputs": [
        {
          "internalType": "uint256",
          "name": "",
          "type": "uint256"
        }
      ],
      "stateMutability": "view",
      "type": "function"
    },
    {
      "inputs": [
        {
          "internalType": "uint256",
          "name": "",
          "type": "uint256"
        },
        {
          "internalType": "uint256",
          "name": "",
          "type": "uint256"
        }
      ],
      "name": "itemBids",
      "outputs": [
        {
          "internalType": "uint256",
          "name": "bidId",
          "type": "uint256"
        },
        {
          "internalType": "uint256",
          "name": "amount",
          "type": "uint256"
        },
        {
          "internalType": "address payable",
          "name": "bidder",
          "type": "address"
        }
      ],
      "stateMutability": "view",
      "type": "function"
    },
    {
      "inputs": [
        {
          "internalType": "uint256",
          "name": "",
          "type": "uint256"
        }
      ],
      "name": "marketItems",
      "outputs": [
        {
          "internalType": "uint256",
          "name": "itemId",
          "type": "uint256"
        },
        {
          "internalType": "string",
          "name": "name",
          "type": "string"
        },
        {
          "internalType": "string",
          "name": "description",
          "type": "string"
        },
        {
          "internalType": "uint256",
          "name": "price",
          "type": "uint256"
        },
        {
          "internalType": "uint256",
          "name": "collectionId",
          "type": "uint256"
        },
        {
          "internalType": "uint256",
          "name": "createdOn",
          "type": "uint256"
        },
        {
          "internalType": "enum INFTMarketPlace.ItemListingStatus",
          "name": "status",
          "type": "uint8"
        }
      ],
      "stateMutability": "view",
      "type": "function"
    },
    {
      "inputs": [
        {
          "internalType": "uint256",
          "name": "",
          "type": "uint256"
        }
      ],
      "name": "marketItemsIds",
      "outputs": [
        {
          "internalType": "uint256",
          "name": "",
          "type": "uint256"
        }
      ],
      "stateMutability": "view",
      "type": "function"
    },
    {
      "inputs": [
        {
          "internalType": "string",
          "name": "tokenURI",
          "type": "string"
        },
        {
          "internalType": "string",
          "name": "name",
          "type": "string"
        },
        {
          "internalType": "string",
          "name": "description",
          "type": "string"
        },
        {
          "internalType": "uint256",
          "name": "collectionId",
          "type": "uint256"
        }
      ],
      "name": "mintToken",
      "outputs": [
        {
          "internalType": "uint256",
          "name": "",
          "type": "uint256"
        }
      ],
      "stateMutability": "payable",
      "type": "function"
    },
    {
      "inputs": [],
      "name": "owner",
      "outputs": [
        {
          "internalType": "address",
          "name": "",
          "type": "address"
        }
      ],
      "stateMutability": "view",
      "type": "function"
    },
    {
      "inputs": [],
      "name": "renounceOwnership",
      "outputs": [],
      "stateMutability": "nonpayable",
      "type": "function"
    },
    {
      "inputs": [],
      "name": "transferListingFee",
      "outputs": [],
      "stateMutability": "payable",
      "type": "function"
    },
    {
      "inputs": [
        {
          "internalType": "address",
          "name": "newOwner",
          "type": "address"
        }
      ],
      "name": "transferOwnership",
      "outputs": [],
      "stateMutability": "nonpayable",
      "type": "function"
    },
    {
      "inputs": [
        {
          "internalType": "uint256",
          "name": "_listingFee",
          "type": "uint256"
        }
      ],
      "name": "updateListingFee",
      "outputs": [],
      "stateMutability": "payable",
      "type": "function"
    },
    {
      "stateMutability": "payable",
      "type": "receive"
    }
  ],
  "bytecode": "0x60a060405260006005556658d15e1762800060065560006007553480156200002657600080fd5b5060405162002821380380620028218339810160408190526200004991620000cb565b6200005d6200005762000077565b6200007b565b6001805560601b6001600160601b031916608052620000fb565b3390565b600080546001600160a01b038381166001600160a01b0319831681178455604051919092169283917f8be0079c531659141344cd1fd0a4f28419497f9722a3daafe3b4186f6b6457e09190a35050565b600060208284031215620000dd578081fd5b81516001600160a01b0381168114620000f4578182fd5b9392505050565b60805160601c6126c8620001596000396000818161054c015281816106600152818161090701528181610a0d01528181610b7901528181610d1401528181610efe015281816111ad01528181611364015261146c01526126c86000f3fe60806040526004361061014f5760003560e01c806398373d02116100b6578063e7a2d22b1161006f578063e7a2d22b14610373578063ece86c2114610393578063ee29b058146103b3578063f2fde38b146103c6578063f79d91ae146103e6578063fdbda0ec146103f95761018d565b806398373d02146102f0578063b4a8e0a914610310578063b4eef73414610323578063bd94b00514610336578063c8c39aeb14610356578063cd5a5bfd1461036b5761018d565b806351f28e141161010857806351f28e141461024b5780636019061b1461027e578063715018a6146102915780637f619390146102a65780638da5cb5b146102bb57806392ce308c146102dd5761018d565b8063108409cc1461019257806312e85585146101bd578063229af4e7146101d2578063351901c3146102015780633fe83db114610216578063417b2dda146102365761018d565b3661018d577f4d6ce1e535dbade1c23defba91e23b8f791ce5edc0cc320257a2b364e4e384263460405161018391906124c8565b60405180910390a1005b600080fd5b34801561019e57600080fd5b506101a761042b565b6040516101b491906124c8565b60405180910390f35b3480156101c957600080fd5b506101a761047c565b3480156101de57600080fd5b506101f26101ed366004611ffb565b610482565b6040516101b4939291906125c8565b61021461020f366004611fe3565b6104b7565b005b34801561022257600080fd5b506101a7610231366004611fe3565b61074f565b34801561024257600080fd5b506101a7610770565b34801561025757600080fd5b5061026b610266366004611fe3565b610776565b6040516101b4979695949392919061254a565b61021461028c366004611ffb565b6108c5565b34801561029d57600080fd5b50610214610b06565b3480156102b257600080fd5b506101a7610b51565b3480156102c757600080fd5b506102d0610b57565b6040516101b49190612067565b6102146102eb366004611ffb565b610b66565b3480156102fc57600080fd5b506101a761030b366004611fe3565b610e59565b6101a761031e366004611edb565b610e69565b610214610331366004611fe3565b611128565b34801561034257600080fd5b50610214610351366004611fe3565b611322565b34801561036257600080fd5b506101a7611555565b61021461155b565b34801561037f57600080fd5b506101a761038e366004611fe3565b611644565b34801561039f57600080fd5b506102146103ae366004611e45565b611654565b6102146103c1366004611ffb565b611853565b3480156103d257600080fd5b506102146103e1366004611e06565b6119fa565b6102146103f4366004611fe3565b611a6b565b34801561040557600080fd5b50610419610414366004611fe3565b611aea565b6040516101b4969594939291906124e8565b6000610435611cc5565b6001600160a01b0316610446610b57565b6001600160a01b0316146104755760405162461bcd60e51b815260040161046c9061240b565b60405180910390fd5b5060055490565b60065490565b600a6020908152600092835260408084209091529082529020805460018201546002909201549091906001600160a01b031683565b600260015414156104da5760405162461bcd60e51b815260040161046c90612440565b6002600155806000808281526009602052604090206006015460ff16600181111561051557634e487b7160e01b600052602160045260246000fd5b146105325760405162461bcd60e51b815260040161046c9061220c565b6040516331a9108f60e11b81526000906001600160a01b037f00000000000000000000000000000000000000000000000000000000000000001690636352211e906105819086906004016124c8565b60206040518083038186803b15801561059957600080fd5b505afa1580156105ad573d6000803e3d6000fd5b505050506040513d601f19601f820116820180604052508101906105d19190611e29565b90506001600160a01b0381163314156105fc5760405162461bcd60e51b815260040161046c906122aa565b600083815260096020526040902060030154341461062c5760405162461bcd60e51b815260040161046c906123b9565b60008381526009602052604080822060038101929092556006909101805460ff19166001179055516323b872dd60e01b81527f00000000000000000000000000000000000000000000000000000000000000006001600160a01b0316906323b872dd906106a19084903390889060040161207b565b600060405180830381600087803b1580156106bb57600080fd5b505af11580156106cf573d6000803e3d6000fd5b50506040516001600160a01b03841692503480156108fc029250906000818181858888f19350505050158015610709573d6000803e3d6000fd5b50827f2aa91d32ed82c3bc263c0523e6d7ac2d014506daca62bf306caea7e0e497c2d433833460405161073e9392919061207b565b60405180910390a250506001805550565b600d818154811061075f57600080fd5b600091825260209091200154905081565b600d5490565b6009602052600090815260409020805460018201805491929161079890612616565b80601f01602080910402602001604051908101604052809291908181526020018280546107c490612616565b80156108115780601f106107e657610100808354040283529160200191610811565b820191906000526020600020905b8154815290600101906020018083116107f457829003601f168201915b50505050509080600201805461082690612616565b80601f016020809104026020016040519081016040528092919081815260200182805461085290612616565b801561089f5780601f106108745761010080835404028352916020019161089f565b820191906000526020600020905b81548152906001019060200180831161088257829003601f168201915b505050506003830154600484015460058501546006909501549394919390925060ff1687565b600082815260096020526040902054829081146108f45760405162461bcd60e51b815260040161046c9061233f565b6040516331a9108f60e11b8152839033907f00000000000000000000000000000000000000000000000000000000000000006001600160a01b031690636352211e906109449085906004016124c8565b60206040518083038186803b15801561095c57600080fd5b505afa158015610970573d6000803e3d6000fd5b505050506040513d601f19601f820116820180604052508101906109949190611e29565b6001600160a01b0316146109ba5760405162461bcd60e51b815260040161046c90612100565b60065434146109db5760405162461bcd60e51b815260040161046c90612477565b600260015414156109fe5760405162461bcd60e51b815260040161046c90612440565b60026001556001600160a01b037f00000000000000000000000000000000000000000000000000000000000000001663a22cb465610a3a611cc5565b60016040518363ffffffff1660e01b8152600401610a5992919061209f565b600060405180830381600087803b158015610a7357600080fd5b505af1158015610a87573d6000803e3d6000fd5b505050503460076000828254610a9d91906125e7565b90915550506000848152600960205260409081902060038101859055600601805460ff19169055517f6189b36f4038170e4c6d5d2481c1316a453b30a6f4d887d8e291c274d1f891ee90610af490869086906125ba565b60405180910390a15050600180555050565b610b0e611cc5565b6001600160a01b0316610b1f610b57565b6001600160a01b031614610b455760405162461bcd60e51b815260040161046c9061240b565b610b4f6000611cc9565b565b600c5490565b6000546001600160a01b031690565b6040516331a9108f60e11b8152829033907f00000000000000000000000000000000000000000000000000000000000000006001600160a01b031690636352211e90610bb69085906004016124c8565b60206040518083038186803b158015610bce57600080fd5b505afa158015610be2573d6000803e3d6000fd5b505050506040513d601f19601f82011682018060405250810190610c069190611e29565b6001600160a01b031614610c2c5760405162461bcd60e51b815260040161046c90612100565b6000838152600a60209081526040808320858452909152902054839083908114610c685760405162461bcd60e51b815260040161046c9061218f565b60026001541415610c8b5760405162461bcd60e51b815260040161046c90612440565b600260018181556000878152600a602090815260408083208984529091529020918201549101546005546001600160a01b0390921691811115610ce05760405162461bcd60e51b815260040161046c9061224d565b60008781526009602052604080822060038101929092556006909101805460ff19166001179055516323b872dd60e01b81527f00000000000000000000000000000000000000000000000000000000000000006001600160a01b0316906323b872dd90610d5590339086908c9060040161207b565b600060405180830381600087803b158015610d6f57600080fd5b505af1158015610d83573d6000803e3d6000fd5b505050508060056000828254610d9991906125ff565b90915550610da9905081476125ff565b50604051339082156108fc029083906000818181858888f19350505050158015610dd7573d6000803e3d6000fd5b506000878152600a602090815260408083208984529091528082208281556001810192909255600290910180546001600160a01b031916905551869088907f9a6c30aa52e2150f2003a14c3eb666c1ae3dcc8661c51e2ab48ca88eed07823c90610e4490859087906124d1565b60405180910390a35050600180555050505050565b600b818154811061075f57600080fd5b600060026001541415610e8e5760405162461bcd60e51b815260040161046c90612440565b60026001556000828152600860205260409020600401546001600160a01b03163314610ecc5760405162461bcd60e51b815260040161046c90612376565b610ed66003611d19565b6000610ee26003611d22565b6040516320cdebf760e21b815290915042906001600160a01b037f00000000000000000000000000000000000000000000000000000000000000001690638337afdc90610f3790339086908e906004016120ba565b600060405180830381600087803b158015610f5157600080fd5b505af1158015610f65573d6000803e3d6000fd5b505050506040518060e0016040528083815260200189898080601f016020809104026020016040519081016040528093929190818152602001838380828437600092019190915250505090825250604080516020601f8a018190048102820181019092528881529181019190899089908190840183828082843760009201829052509385525050506020820152604081018690526060810183905260800160019052600083815260096020908152604090912082518155828201518051919261103692600185019290910190611d26565b5060408201518051611052916002840191602090910190611d26565b50606082015160038201556080820151600482015560a0820151600582015560c082015160068201805460ff1916600183818111156110a157634e487b7160e01b600052602160045260246000fd5b021790555050600c805460018101825560009182527fdf6966c971051c3d54ec59162606531493a51404a002842f56009d7e5cf4a8c7018490556040518492507f20b783292d66c024794198f13faa7e7671cc3d2323d1c787416e8dfe266fdfec9161111091889086906120ea565b60405180910390a25060018055979650505050505050565b600081815260096020526040902054819081146111575760405162461bcd60e51b815260040161046c9061233f565b6002600154141561117a5760405162461bcd60e51b815260040161046c90612440565b60026001553461119c5760405162461bcd60e51b815260040161046c906122f4565b6040516331a9108f60e11b815233907f00000000000000000000000000000000000000000000000000000000000000006001600160a01b031690636352211e906111ea9086906004016124c8565b60206040518083038186803b15801561120257600080fd5b505afa158015611216573d6000803e3d6000fd5b505050506040513d601f19601f8201168201806040525081019061123a9190611e29565b6001600160a01b031614156112615760405162461bcd60e51b815260040161046c90612145565b61126b6004611d19565b60006112776004611d22565b9050346005600082825461128b91906125e7565b9091555050604080516060810182528281523460208083018281523384860181815260008a8152600a85528781208982529094529286902094518555905160018501559051600290930180546001600160a01b0319166001600160a01b0390941693909317909255915183927f8335194a78ed1f7eef3da42ceddf79ade8dc1d12fbb0623324b46c076cae60e89261073e926124d1565b600081815260096020526040902054819081146113515760405162461bcd60e51b815260040161046c9061233f565b6040516331a9108f60e11b8152829033907f00000000000000000000000000000000000000000000000000000000000000006001600160a01b031690636352211e906113a19085906004016124c8565b60206040518083038186803b1580156113b957600080fd5b505afa1580156113cd573d6000803e3d6000fd5b505050506040513d601f19601f820116820180604052508101906113f19190611e29565b6001600160a01b0316146114175760405162461bcd60e51b815260040161046c90612100565b826000808281526009602052604090206006015460ff16600181111561144d57634e487b7160e01b600052602160045260246000fd5b1461146a5760405162461bcd60e51b815260040161046c9061220c565b7f00000000000000000000000000000000000000000000000000000000000000006001600160a01b031663a22cb4656114a1611cc5565b60006040518363ffffffff1660e01b81526004016114c092919061209f565b600060405180830381600087803b1580156114da57600080fd5b505af11580156114ee573d6000803e3d6000fd5b50505060008581526009602052604080822060038101929092556006909101805460ff19166001179055517f8fa1bb7b99ca89bcbb44993cdfed439877555de6e6606cee547d631434b7e18191506115479086906124c8565b60405180910390a150505050565b600b5490565b611563611cc5565b6001600160a01b0316611574610b57565b6001600160a01b03161461159a5760405162461bcd60e51b815260040161046c9061240b565b600260015414156115bd5760405162461bcd60e51b815260040161046c90612440565b60026001556007805460009091556115d581476125ff565b50604051339082156108fc029083906000818181858888f19350505050158015611603573d6000803e3d6000fd5b507f4e60501f434af3840e3d76dabba18982cf1ff93cad68dfa8daebca971baa2a1a60075460405161163591906124c8565b60405180910390a15060018055565b600c818154811061075f57600080fd5b61165e6002611d19565b600061166a6002611d22565b905060004290506040518060c0016040528083815260200187878080601f016020809104026020016040519081016040528093929190818152602001838380828437600092019190915250505090825250604080516020601f8801819004810282018101909252868152918101919087908790819084018382808284376000920191909152505050908252506020808201849052336040808401919091528051601f8c018390048302810183019091528a8152606090920191908b908b908190840183828082843760009201829052509390945250508481526008602090815260409091208351815583820151805191935061176d926001850192910190611d26565b5060408201518051611789916002840191602090910190611d26565b506060820151600382015560808201516004820180546001600160a01b0319166001600160a01b0390921691909117905560a082015180516117d5916005840191602090910190611d26565b5050600b80546001810182556000919091527f0175b7a638427703f0dbe7bb9bbf987a2551717b34e79f33b5b1008d1fa01db9018390555060405182907f15f0768ddb29abfbb7cb3b54a0f082e5b441cf04715c8cb8226cc866fbfbba5b9061184190849033906124d1565b60405180910390a25050505050505050565b600082815260096020526040902054829081146118825760405162461bcd60e51b815260040161046c9061233f565b6000838152600a602090815260408083208584529091529020548390839081146118be5760405162461bcd60e51b815260040161046c9061218f565b600260015414156118e15760405162461bcd60e51b815260040161046c90612440565b600260018181556000878152600a602090815260408083208984529091529020918201549101546005546001600160a01b03909216918111156119365760405162461bcd60e51b815260040161046c9061224d565b806005600082825461194891906125ff565b90915550611958905081476125ff565b506040516001600160a01b0383169082156108fc029083906000818181858888f1935050505015801561198f573d6000803e3d6000fd5b506000878152600a602090815260408083208984529091528082208281556001810192909255600290910180546001600160a01b031916905551869088907f26ad9a48a900ea965adb7d7fd3f9552c907540683bac6687640cac5a933b9c6690610e44903390612067565b611a02611cc5565b6001600160a01b0316611a13610b57565b6001600160a01b031614611a395760405162461bcd60e51b815260040161046c9061240b565b6001600160a01b038116611a5f5760405162461bcd60e51b815260040161046c906121c6565b611a6881611cc9565b50565b611a73611cc5565b6001600160a01b0316611a84610b57565b6001600160a01b031614611aaa5760405162461bcd60e51b815260040161046c9061240b565b60068190556040517f5fb4654f1efe30c6141eaa6855ffcb27e0b361d899b05e21b1a4d0b3e71e14db90611adf9083906124c8565b60405180910390a150565b60086020526000908152604090208054600182018054919291611b0c90612616565b80601f0160208091040260200160405190810160405280929190818152602001828054611b3890612616565b8015611b855780601f10611b5a57610100808354040283529160200191611b85565b820191906000526020600020905b815481529060010190602001808311611b6857829003601f168201915b505050505090806002018054611b9a90612616565b80601f0160208091040260200160405190810160405280929190818152602001828054611bc690612616565b8015611c135780601f10611be857610100808354040283529160200191611c13565b820191906000526020600020905b815481529060010190602001808311611bf657829003601f168201915b5050505060038301546004840154600585018054949592946001600160a01b03909216935090611c4290612616565b80601f0160208091040260200160405190810160405280929190818152602001828054611c6e90612616565b8015611cbb5780601f10611c9057610100808354040283529160200191611cbb565b820191906000526020600020905b815481529060010190602001808311611c9e57829003601f168201915b5050505050905086565b3390565b600080546001600160a01b038381166001600160a01b0319831681178455604051919092169283917f8be0079c531659141344cd1fd0a4f28419497f9722a3daafe3b4186f6b6457e09190a35050565b80546001019055565b5490565b828054611d3290612616565b90600052602060002090601f016020900481019282611d545760008555611d9a565b82601f10611d6d57805160ff1916838001178555611d9a565b82800160010185558215611d9a579182015b82811115611d9a578251825591602001919060010190611d7f565b50611da6929150611daa565b5090565b5b80821115611da65760008155600101611dab565b60008083601f840112611dd0578081fd5b50813567ffffffffffffffff811115611de7578182fd5b602083019150836020828501011115611dff57600080fd5b9250929050565b600060208284031215611e17578081fd5b8135611e228161267d565b9392505050565b600060208284031215611e3a578081fd5b8151611e228161267d565b60008060008060008060608789031215611e5d578182fd5b863567ffffffffffffffff80821115611e74578384fd5b611e808a838b01611dbf565b90985096506020890135915080821115611e98578384fd5b611ea48a838b01611dbf565b90965094506040890135915080821115611ebc578384fd5b50611ec989828a01611dbf565b979a9699509497509295939492505050565b60008060008060008060808789031215611ef3578182fd5b863567ffffffffffffffff80821115611f0a578384fd5b818901915089601f830112611f1d578384fd5b813581811115611f2f57611f2f612667565b604051601f8201601f19908116603f01168101908382118183101715611f5757611f57612667565b816040528281528c6020848701011115611f6f578687fd5b826020860160208301378660208483010152809a505050506020890135915080821115611f9a578384fd5b611fa68a838b01611dbf565b90975095506040890135915080821115611fbe578384fd5b50611fcb89828a01611dbf565b979a9699509497949695606090950135949350505050565b600060208284031215611ff4578081fd5b5035919050565b6000806040838503121561200d578182fd5b50508035926020909101359150565b60008151808452815b8181101561204157602081850181015186830182015201612025565b818111156120525782602083870101525b50601f01601f19169290920160200192915050565b6001600160a01b0391909116815260200190565b6001600160a01b039384168152919092166020820152604081019190915260600190565b6001600160a01b039290921682521515602082015260400190565b600060018060a01b0385168252836020830152606060408301526120e1606083018461201c565b95945050505050565b9283526020830191909152604082015260600190565b60208082526025908201527f4d61726b6574706c6163653a206974656d206973206e6f74206f776e656420626040820152647920796f7560d81b606082015260800190565b6020808252602a908201527f4d61726b6574706c6163653a20796f752063616e206e6f742062696420796f7560408201526972206f776e206974656d60b01b606082015260800190565b60208082526018908201527f4d61726b6574706c6163653a206e6f2073756368206269640000000000000000604082015260600190565b60208082526026908201527f4f776e61626c653a206e6577206f776e657220697320746865207a65726f206160408201526564647265737360d01b606082015260800190565b60208082526021908201527f4d61726b6574706c6163653a206974656d206973206e6f7420666f722073616c6040820152606560f81b606082015260800190565b6020808252603c908201527f4d61726b6574706c6163653a205472616e73616374696f6e206661696c65642e60408201527f20436f6e747261637420686173206e6f7420656e6f7567682077656900000000606082015260800190565b6020808252602a908201527f4d61726b6574706c6163653a20796f752063616e206e6f742062757920796f7560408201526972206f776e206974656d60b01b606082015260800190565b6020808252602b908201527f4d61726b6574706c6163653a206f66666572206d757374206265206174206c6560408201526a617374206f6e652077656960a81b606082015260800190565b60208082526019908201527f4d61726b6574706c6163653a206e6f2073756368206974656d00000000000000604082015260600190565b60208082526023908201527f4d61726b6574706c6163653a206e6f20636f6c6c656374696f6e206f6620796f60408201526275727360e81b606082015260800190565b60208082526032908201527f4d61726b6574706c6163653a20616d6f756e74206d75737420626520657175616040820152716c20746f206c697374696e6720707269636560701b606082015260800190565b6020808252818101527f4f776e61626c653a2063616c6c6572206973206e6f7420746865206f776e6572604082015260600190565b6020808252601f908201527f5265656e7472616e637947756172643a207265656e7472616e742063616c6c00604082015260600190565b60208082526031908201527f4d61726b6574706c6163653a207072696365206d75737420626520657175616c60408201527020746f206c697374696e6720707269636560781b606082015260800190565b90815260200190565b9182526001600160a01b0316602082015260400190565b600087825260c0602083015261250160c083018861201c565b8281036040840152612513818861201c565b606084018790526001600160a01b038616608085015283810360a0850152905061253d818561201c565b9998505050505050505050565b600088825260e0602083015261256360e083018961201c565b8281036040840152612575818961201c565b9150508560608301528460808301528360a0830152600283106125a857634e487b7160e01b600052602160045260246000fd5b8260c083015298975050505050505050565b918252602082015260400190565b92835260208301919091526001600160a01b0316604082015260600190565b600082198211156125fa576125fa612651565b500190565b60008282101561261157612611612651565b500390565b60028104600182168061262a57607f821691505b6020821081141561264b57634e487b7160e01b600052602260045260246000fd5b50919050565b634e487b7160e01b600052601160045260246000fd5b634e487b7160e01b600052604160045260246000fd5b6001600160a01b0381168114611a6857600080fdfea26469706673582212208b02dd4c7e60866ff16441c754063b3e24b8b7f33831cacce04376fde44ccc3364736f6c63430008010033",
  "linkReferences": {},
  "deployedLinkReferences": {}
}