{
  "_format": "hh-sol-artifact-1",
  "contractName": "NFTMarketPlace",
  "sourceName": "contracts/NFTMarketPlace.sol",
  "abi": [
    {
      "inputs": [
        {
          "internalType": "address",
          "name": "_marketItemAddress",
          "type": "address"
        }
      ],
      "stateMutability": "nonpayable",
      "type": "constructor"
    },
    {
      "anonymous": false,
      "inputs": [
        {
          "indexed": true,
          "internalType": "uint256",
          "name": "tokenId",
          "type": "uint256"
        },
        {
          "indexed": true,
          "internalType": "uint256",
          "name": "bidId",
          "type": "uint256"
        },
        {
          "indexed": false,
          "internalType": "uint256",
          "name": "amount",
          "type": "uint256"
        },
        {
          "indexed": false,
          "internalType": "address",
          "name": "bidder",
          "type": "address"
        }
      ],
      "name": "BidAccepted",
      "type": "event"
    },
    {
      "anonymous": false,
      "inputs": [
        {
          "indexed": true,
          "internalType": "uint256",
          "name": "tokenId",
          "type": "uint256"
        },
        {
          "indexed": true,
          "internalType": "uint256",
          "name": "bidId",
          "type": "uint256"
        },
        {
          "indexed": false,
          "internalType": "address",
          "name": "canceller",
          "type": "address"
        }
      ],
      "name": "BidCancelled",
      "type": "event"
    },
    {
      "anonymous": false,
      "inputs": [
        {
          "indexed": true,
          "internalType": "uint256",
          "name": "bidId",
          "type": "uint256"
        },
        {
          "indexed": false,
          "internalType": "uint256",
          "name": "price",
          "type": "uint256"
        },
        {
          "indexed": false,
          "internalType": "address",
          "name": "bidder",
          "type": "address"
        }
      ],
      "name": "BidCreated",
      "type": "event"
    },
    {
      "anonymous": false,
      "inputs": [
        {
          "indexed": false,
          "internalType": "uint256",
          "name": "itemId",
          "type": "uint256"
        }
      ],
      "name": "CancelMarketSale",
      "type": "event"
    },
    {
      "anonymous": false,
      "inputs": [
        {
          "indexed": true,
          "internalType": "uint256",
          "name": "collectionId",
          "type": "uint256"
        },
        {
          "indexed": false,
          "internalType": "uint256",
          "name": "createdOn",
          "type": "uint256"
        },
        {
          "indexed": false,
          "internalType": "address",
          "name": "creator",
          "type": "address"
        }
      ],
      "name": "CollectionCreated",
      "type": "event"
    },
    {
      "anonymous": false,
      "inputs": [
        {
          "indexed": false,
          "internalType": "uint256",
          "name": "itemId",
          "type": "uint256"
        },
        {
          "indexed": false,
          "internalType": "uint256",
          "name": "price",
          "type": "uint256"
        }
      ],
      "name": "CreateMarketSale",
      "type": "event"
    },
    {
      "anonymous": false,
      "inputs": [
        {
          "indexed": false,
          "internalType": "uint256",
          "name": "price",
          "type": "uint256"
        }
      ],
      "name": "Deposit",
      "type": "event"
    },
    {
      "anonymous": false,
      "inputs": [
        {
          "indexed": true,
          "internalType": "uint256",
          "name": "itemId",
          "type": "uint256"
        },
        {
          "indexed": false,
          "internalType": "address",
          "name": "buyer",
          "type": "address"
        },
        {
          "indexed": false,
          "internalType": "address",
          "name": "owner",
          "type": "address"
        },
        {
          "indexed": false,
          "internalType": "uint256",
          "name": "price",
          "type": "uint256"
        }
      ],
      "name": "ItemBought",
      "type": "event"
    },
    {
      "anonymous": false,
      "inputs": [
        {
          "indexed": true,
          "internalType": "uint256",
          "name": "itemId",
          "type": "uint256"
        },
        {
          "indexed": false,
          "internalType": "uint256",
          "name": "price",
          "type": "uint256"
        },
        {
          "indexed": false,
          "internalType": "uint256",
          "name": "collectionId",
          "type": "uint256"
        },
        {
          "indexed": false,
          "internalType": "uint256",
          "name": "createdOn",
          "type": "uint256"
        }
      ],
      "name": "ItemMinted",
      "type": "event"
    },
    {
      "anonymous": false,
      "inputs": [
        {
          "indexed": false,
          "internalType": "uint256",
          "name": "listingFee",
          "type": "uint256"
        }
      ],
      "name": "ListingFeeToOwner",
      "type": "event"
    },
    {
      "anonymous": false,
      "inputs": [
        {
          "indexed": false,
          "internalType": "uint256",
          "name": "newListingFee",
          "type": "uint256"
        }
      ],
      "name": "ListingFeeUpdated",
      "type": "event"
    },
    {
      "anonymous": false,
      "inputs": [
        {
          "indexed": true,
          "internalType": "address",
          "name": "previousOwner",
          "type": "address"
        },
        {
          "indexed": true,
          "internalType": "address",
          "name": "newOwner",
          "type": "address"
        }
      ],
      "name": "OwnershipTransferred",
      "type": "event"
    },
    {
      "inputs": [
        {
          "internalType": "uint256",
          "name": "tokenId",
          "type": "uint256"
        },
        {
          "internalType": "uint256",
          "name": "bidId",
          "type": "uint256"
        }
      ],
      "name": "acceptItemBid",
      "outputs": [],
      "stateMutability": "payable",
      "type": "function"
    },
    {
      "inputs": [
        {
          "internalType": "uint256",
          "name": "tokenId",
          "type": "uint256"
        }
      ],
      "name": "bidMarketItem",
      "outputs": [],
      "stateMutability": "payable",
      "type": "function"
    },
    {
      "inputs": [
        {
          "internalType": "uint256",
          "name": "",
          "type": "uint256"
        }
      ],
      "name": "bidsIds",
      "outputs": [
        {
          "internalType": "uint256",
          "name": "",
          "type": "uint256"
        }
      ],
      "stateMutability": "view",
      "type": "function"
    },
    {
      "inputs": [
        {
          "internalType": "uint256",
          "name": "tokenId",
          "type": "uint256"
        }
      ],
      "name": "buyMarketItem",
      "outputs": [],
      "stateMutability": "payable",
      "type": "function"
    },
    {
      "inputs": [
        {
          "internalType": "uint256",
          "name": "tokenId",
          "type": "uint256"
        },
        {
          "internalType": "uint256",
          "name": "bidId",
          "type": "uint256"
        }
      ],
      "name": "cancelItemBid",
      "outputs": [],
      "stateMutability": "payable",
      "type": "function"
    },
    {
      "inputs": [
        {
          "internalType": "uint256",
          "name": "tokenId",
          "type": "uint256"
        }
      ],
      "name": "cancelSale",
      "outputs": [],
      "stateMutability": "nonpayable",
      "type": "function"
    },
    {
      "inputs": [
        {
          "internalType": "uint256",
          "name": "",
          "type": "uint256"
        }
      ],
      "name": "collections",
      "outputs": [
        {
          "internalType": "uint256",
          "name": "collectionId",
          "type": "uint256"
        },
        {
          "internalType": "string",
          "name": "name",
          "type": "string"
        },
        {
          "internalType": "string",
          "name": "description",
          "type": "string"
        },
        {
          "internalType": "uint256",
          "name": "createdOn",
          "type": "uint256"
        },
        {
          "internalType": "address",
          "name": "creator",
          "type": "address"
        },
        {
          "internalType": "string",
          "name": "image",
          "type": "string"
        }
      ],
      "stateMutability": "view",
      "type": "function"
    },
    {
      "inputs": [
        {
          "internalType": "uint256",
          "name": "",
          "type": "uint256"
        }
      ],
      "name": "collectionsIds",
      "outputs": [
        {
          "internalType": "uint256",
          "name": "",
          "type": "uint256"
        }
      ],
      "stateMutability": "view",
      "type": "function"
    },
    {
      "inputs": [
        {
          "internalType": "string",
          "name": "image",
          "type": "string"
        },
        {
          "internalType": "string",
          "name": "name",
          "type": "string"
        },
        {
          "internalType": "string",
          "name": "description",
          "type": "string"
        }
      ],
      "name": "createCollection",
      "outputs": [],
      "stateMutability": "nonpayable",
      "type": "function"
    },
    {
      "inputs": [
        {
          "internalType": "uint256",
          "name": "tokenId",
          "type": "uint256"
        },
        {
          "internalType": "uint256",
          "name": "_price",
          "type": "uint256"
        }
      ],
      "name": "createSale",
      "outputs": [],
      "stateMutability": "payable",
      "type": "function"
    },
    {
      "inputs": [],
      "name": "getCollectionLength",
      "outputs": [
        {
          "internalType": "uint256",
          "name": "",
          "type": "uint256"
        }
      ],
      "stateMutability": "view",
      "type": "function"
    },
    {
      "inputs": [],
      "name": "getItemBidsLength",
      "outputs": [
        {
          "internalType": "uint256",
          "name": "",
          "type": "uint256"
        }
      ],
      "stateMutability": "view",
      "type": "function"
    },
    {
      "inputs": [],
      "name": "getLockedBidAmount",
      "outputs": [
        {
          "internalType": "uint256",
          "name": "",
          "type": "uint256"
        }
      ],
      "stateMutability": "view",
      "type": "function"
    },
    {
      "inputs": [],
      "name": "getMarketItemsLength",
      "outputs": [
        {
          "internalType": "uint256",
          "name": "",
          "type": "uint256"
        }
      ],
      "stateMutability": "view",
      "type": "function"
    },
    {
      "inputs": [
        {
          "internalType": "uint256",
          "name": "",
          "type": "uint256"
        },
        {
          "internalType": "uint256",
          "name": "",
          "type": "uint256"
        }
      ],
      "name": "itemBids",
      "outputs": [
        {
          "internalType": "uint256",
          "name": "bidId",
          "type": "uint256"
        },
        {
          "internalType": "uint256",
          "name": "amount",
          "type": "uint256"
        },
        {
          "internalType": "address payable",
          "name": "bidder",
          "type": "address"
        }
      ],
      "stateMutability": "view",
      "type": "function"
    },
    {
      "inputs": [
        {
          "internalType": "uint256",
          "name": "",
          "type": "uint256"
        }
      ],
      "name": "marketItems",
      "outputs": [
        {
          "internalType": "uint256",
          "name": "itemId",
          "type": "uint256"
        },
        {
          "internalType": "string",
          "name": "name",
          "type": "string"
        },
        {
          "internalType": "string",
          "name": "description",
          "type": "string"
        },
        {
          "internalType": "uint256",
          "name": "price",
          "type": "uint256"
        },
        {
          "internalType": "uint256",
          "name": "collectionId",
          "type": "uint256"
        },
        {
          "internalType": "uint256",
          "name": "createdOn",
          "type": "uint256"
        },
        {
          "internalType": "enum INFTMarketPlace.ItemListingStatus",
          "name": "status",
          "type": "uint8"
        }
      ],
      "stateMutability": "view",
      "type": "function"
    },
    {
      "inputs": [
        {
          "internalType": "uint256",
          "name": "",
          "type": "uint256"
        }
      ],
      "name": "marketItemsIds",
      "outputs": [
        {
          "internalType": "uint256",
          "name": "",
          "type": "uint256"
        }
      ],
      "stateMutability": "view",
      "type": "function"
    },
    {
      "inputs": [
        {
          "internalType": "string",
          "name": "tokenURI",
          "type": "string"
        },
        {
          "internalType": "string",
          "name": "name",
          "type": "string"
        },
        {
          "internalType": "string",
          "name": "description",
          "type": "string"
        },
        {
          "internalType": "uint256",
          "name": "collectionId",
          "type": "uint256"
        }
      ],
      "name": "mintToken",
      "outputs": [
        {
          "internalType": "uint256",
          "name": "",
          "type": "uint256"
        }
      ],
      "stateMutability": "payable",
      "type": "function"
    },
    {
      "inputs": [],
      "name": "owner",
      "outputs": [
        {
          "internalType": "address",
          "name": "",
          "type": "address"
        }
      ],
      "stateMutability": "view",
      "type": "function"
    },
    {
      "inputs": [],
      "name": "renounceOwnership",
      "outputs": [],
      "stateMutability": "nonpayable",
      "type": "function"
    },
    {
      "inputs": [],
      "name": "transferListingFee",
      "outputs": [],
      "stateMutability": "payable",
      "type": "function"
    },
    {
      "inputs": [
        {
          "internalType": "address",
          "name": "newOwner",
          "type": "address"
        }
      ],
      "name": "transferOwnership",
      "outputs": [],
      "stateMutability": "nonpayable",
      "type": "function"
    },
    {
      "inputs": [
        {
          "internalType": "uint256",
          "name": "_listingFee",
          "type": "uint256"
        }
      ],
      "name": "updateListingFee",
      "outputs": [],
      "stateMutability": "payable",
      "type": "function"
    },
    {
      "stateMutability": "payable",
      "type": "receive"
    }
  ],
  "bytecode": "0x60a060405260006005556658d15e1762800060065560006007553480156200002657600080fd5b50604051620027fb380380620027fb8339810160408190526200004991620000cb565b6200005d6200005762000077565b6200007b565b6001805560601b6001600160601b031916608052620000fb565b3390565b600080546001600160a01b038381166001600160a01b0319831681178455604051919092169283917f8be0079c531659141344cd1fd0a4f28419497f9722a3daafe3b4186f6b6457e09190a35050565b600060208284031215620000dd578081fd5b81516001600160a01b0381168114620000f4578182fd5b9392505050565b60805160601c6126a262000159600039600081816105260152818161063a015281816108e1015281816109e701528181610b5301528181610cee01528181610ed8015281816111870152818161133e015261144601526126a26000f3fe6080604052600436106101445760003560e01c806398373d02116100b6578063e7a2d22b1161006f578063e7a2d22b14610353578063ece86c2114610373578063ee29b05814610393578063f2fde38b146103a6578063f79d91ae146103c6578063fdbda0ec146103d957610182565b806398373d02146102d0578063b4a8e0a9146102f0578063b4eef73414610303578063bd94b00514610316578063c8c39aeb14610336578063cd5a5bfd1461034b57610182565b806351f28e141161010857806351f28e141461022b5780636019061b1461025e578063715018a6146102715780637f619390146102865780638da5cb5b1461029b57806392ce308c146102bd57610182565b8063108409cc14610187578063229af4e7146101b2578063351901c3146101e15780633fe83db1146101f6578063417b2dda1461021657610182565b36610182577f4d6ce1e535dbade1c23defba91e23b8f791ce5edc0cc320257a2b364e4e384263460405161017891906124a2565b60405180910390a1005b600080fd5b34801561019357600080fd5b5061019c61040b565b6040516101a991906124a2565b60405180910390f35b3480156101be57600080fd5b506101d26101cd366004611fd5565b61045c565b6040516101a9939291906125a2565b6101f46101ef366004611fbd565b610491565b005b34801561020257600080fd5b5061019c610211366004611fbd565b610729565b34801561022257600080fd5b5061019c61074a565b34801561023757600080fd5b5061024b610246366004611fbd565b610750565b6040516101a99796959493929190612524565b6101f461026c366004611fd5565b61089f565b34801561027d57600080fd5b506101f4610ae0565b34801561029257600080fd5b5061019c610b2b565b3480156102a757600080fd5b506102b0610b31565b6040516101a99190612041565b6101f46102cb366004611fd5565b610b40565b3480156102dc57600080fd5b5061019c6102eb366004611fbd565b610e33565b61019c6102fe366004611eb5565b610e43565b6101f4610311366004611fbd565b611102565b34801561032257600080fd5b506101f4610331366004611fbd565b6112fc565b34801561034257600080fd5b5061019c61152f565b6101f4611535565b34801561035f57600080fd5b5061019c61036e366004611fbd565b61161e565b34801561037f57600080fd5b506101f461038e366004611e1f565b61162e565b6101f46103a1366004611fd5565b61182d565b3480156103b257600080fd5b506101f46103c1366004611de0565b6119d4565b6101f46103d4366004611fbd565b611a45565b3480156103e557600080fd5b506103f96103f4366004611fbd565b611ac4565b6040516101a9969594939291906124c2565b6000610415611c9f565b6001600160a01b0316610426610b31565b6001600160a01b0316146104555760405162461bcd60e51b815260040161044c906123e5565b60405180910390fd5b5060055490565b600a6020908152600092835260408084209091529082529020805460018201546002909201549091906001600160a01b031683565b600260015414156104b45760405162461bcd60e51b815260040161044c9061241a565b6002600155806000808281526009602052604090206006015460ff1660018111156104ef57634e487b7160e01b600052602160045260246000fd5b1461050c5760405162461bcd60e51b815260040161044c906121e6565b6040516331a9108f60e11b81526000906001600160a01b037f00000000000000000000000000000000000000000000000000000000000000001690636352211e9061055b9086906004016124a2565b60206040518083038186803b15801561057357600080fd5b505afa158015610587573d6000803e3d6000fd5b505050506040513d601f19601f820116820180604052508101906105ab9190611e03565b90506001600160a01b0381163314156105d65760405162461bcd60e51b815260040161044c90612284565b60008381526009602052604090206003015434146106065760405162461bcd60e51b815260040161044c90612393565b60008381526009602052604080822060038101929092556006909101805460ff19166001179055516323b872dd60e01b81527f00000000000000000000000000000000000000000000000000000000000000006001600160a01b0316906323b872dd9061067b90849033908890600401612055565b600060405180830381600087803b15801561069557600080fd5b505af11580156106a9573d6000803e3d6000fd5b50506040516001600160a01b03841692503480156108fc029250906000818181858888f193505050501580156106e3573d6000803e3d6000fd5b50827f2aa91d32ed82c3bc263c0523e6d7ac2d014506daca62bf306caea7e0e497c2d433833460405161071893929190612055565b60405180910390a250506001805550565b600d818154811061073957600080fd5b600091825260209091200154905081565b600d5490565b60096020526000908152604090208054600182018054919291610772906125f0565b80601f016020809104026020016040519081016040528092919081815260200182805461079e906125f0565b80156107eb5780601f106107c0576101008083540402835291602001916107eb565b820191906000526020600020905b8154815290600101906020018083116107ce57829003601f168201915b505050505090806002018054610800906125f0565b80601f016020809104026020016040519081016040528092919081815260200182805461082c906125f0565b80156108795780601f1061084e57610100808354040283529160200191610879565b820191906000526020600020905b81548152906001019060200180831161085c57829003601f168201915b505050506003830154600484015460058501546006909501549394919390925060ff1687565b600082815260096020526040902054829081146108ce5760405162461bcd60e51b815260040161044c90612319565b6040516331a9108f60e11b8152839033907f00000000000000000000000000000000000000000000000000000000000000006001600160a01b031690636352211e9061091e9085906004016124a2565b60206040518083038186803b15801561093657600080fd5b505afa15801561094a573d6000803e3d6000fd5b505050506040513d601f19601f8201168201806040525081019061096e9190611e03565b6001600160a01b0316146109945760405162461bcd60e51b815260040161044c906120da565b60065434146109b55760405162461bcd60e51b815260040161044c90612451565b600260015414156109d85760405162461bcd60e51b815260040161044c9061241a565b60026001556001600160a01b037f00000000000000000000000000000000000000000000000000000000000000001663a22cb465610a14611c9f565b60016040518363ffffffff1660e01b8152600401610a33929190612079565b600060405180830381600087803b158015610a4d57600080fd5b505af1158015610a61573d6000803e3d6000fd5b505050503460076000828254610a7791906125c1565b90915550506000848152600960205260409081902060038101859055600601805460ff19169055517f6189b36f4038170e4c6d5d2481c1316a453b30a6f4d887d8e291c274d1f891ee90610ace9086908690612594565b60405180910390a15050600180555050565b610ae8611c9f565b6001600160a01b0316610af9610b31565b6001600160a01b031614610b1f5760405162461bcd60e51b815260040161044c906123e5565b610b296000611ca3565b565b600c5490565b6000546001600160a01b031690565b6040516331a9108f60e11b8152829033907f00000000000000000000000000000000000000000000000000000000000000006001600160a01b031690636352211e90610b909085906004016124a2565b60206040518083038186803b158015610ba857600080fd5b505afa158015610bbc573d6000803e3d6000fd5b505050506040513d601f19601f82011682018060405250810190610be09190611e03565b6001600160a01b031614610c065760405162461bcd60e51b815260040161044c906120da565b6000838152600a60209081526040808320858452909152902054839083908114610c425760405162461bcd60e51b815260040161044c90612169565b60026001541415610c655760405162461bcd60e51b815260040161044c9061241a565b600260018181556000878152600a602090815260408083208984529091529020918201549101546005546001600160a01b0390921691811115610cba5760405162461bcd60e51b815260040161044c90612227565b60008781526009602052604080822060038101929092556006909101805460ff19166001179055516323b872dd60e01b81527f00000000000000000000000000000000000000000000000000000000000000006001600160a01b0316906323b872dd90610d2f90339086908c90600401612055565b600060405180830381600087803b158015610d4957600080fd5b505af1158015610d5d573d6000803e3d6000fd5b505050508060056000828254610d7391906125d9565b90915550610d83905081476125d9565b50604051339082156108fc029083906000818181858888f19350505050158015610db1573d6000803e3d6000fd5b506000878152600a602090815260408083208984529091528082208281556001810192909255600290910180546001600160a01b031916905551869088907f9a6c30aa52e2150f2003a14c3eb666c1ae3dcc8661c51e2ab48ca88eed07823c90610e1e90859087906124ab565b60405180910390a35050600180555050505050565b600b818154811061073957600080fd5b600060026001541415610e685760405162461bcd60e51b815260040161044c9061241a565b60026001556000828152600860205260409020600401546001600160a01b03163314610ea65760405162461bcd60e51b815260040161044c90612350565b610eb06003611cf3565b6000610ebc6003611cfc565b6040516320cdebf760e21b815290915042906001600160a01b037f00000000000000000000000000000000000000000000000000000000000000001690638337afdc90610f1190339086908e90600401612094565b600060405180830381600087803b158015610f2b57600080fd5b505af1158015610f3f573d6000803e3d6000fd5b505050506040518060e0016040528083815260200189898080601f016020809104026020016040519081016040528093929190818152602001838380828437600092019190915250505090825250604080516020601f8a018190048102820181019092528881529181019190899089908190840183828082843760009201829052509385525050506020820152604081018690526060810183905260800160019052600083815260096020908152604090912082518155828201518051919261101092600185019290910190611d00565b506040820151805161102c916002840191602090910190611d00565b50606082015160038201556080820151600482015560a0820151600582015560c082015160068201805460ff19166001838181111561107b57634e487b7160e01b600052602160045260246000fd5b021790555050600c805460018101825560009182527fdf6966c971051c3d54ec59162606531493a51404a002842f56009d7e5cf4a8c7018490556040518492507f20b783292d66c024794198f13faa7e7671cc3d2323d1c787416e8dfe266fdfec916110ea91889086906120c4565b60405180910390a25060018055979650505050505050565b600081815260096020526040902054819081146111315760405162461bcd60e51b815260040161044c90612319565b600260015414156111545760405162461bcd60e51b815260040161044c9061241a565b6002600155346111765760405162461bcd60e51b815260040161044c906122ce565b6040516331a9108f60e11b815233907f00000000000000000000000000000000000000000000000000000000000000006001600160a01b031690636352211e906111c49086906004016124a2565b60206040518083038186803b1580156111dc57600080fd5b505afa1580156111f0573d6000803e3d6000fd5b505050506040513d601f19601f820116820180604052508101906112149190611e03565b6001600160a01b0316141561123b5760405162461bcd60e51b815260040161044c9061211f565b6112456004611cf3565b60006112516004611cfc565b9050346005600082825461126591906125c1565b9091555050604080516060810182528281523460208083018281523384860181815260008a8152600a85528781208982529094529286902094518555905160018501559051600290930180546001600160a01b0319166001600160a01b0390941693909317909255915183927f8335194a78ed1f7eef3da42ceddf79ade8dc1d12fbb0623324b46c076cae60e892610718926124ab565b6000818152600960205260409020548190811461132b5760405162461bcd60e51b815260040161044c90612319565b6040516331a9108f60e11b8152829033907f00000000000000000000000000000000000000000000000000000000000000006001600160a01b031690636352211e9061137b9085906004016124a2565b60206040518083038186803b15801561139357600080fd5b505afa1580156113a7573d6000803e3d6000fd5b505050506040513d601f19601f820116820180604052508101906113cb9190611e03565b6001600160a01b0316146113f15760405162461bcd60e51b815260040161044c906120da565b826000808281526009602052604090206006015460ff16600181111561142757634e487b7160e01b600052602160045260246000fd5b146114445760405162461bcd60e51b815260040161044c906121e6565b7f00000000000000000000000000000000000000000000000000000000000000006001600160a01b031663a22cb46561147b611c9f565b60006040518363ffffffff1660e01b815260040161149a929190612079565b600060405180830381600087803b1580156114b457600080fd5b505af11580156114c8573d6000803e3d6000fd5b50505060008581526009602052604080822060038101929092556006909101805460ff19166001179055517f8fa1bb7b99ca89bcbb44993cdfed439877555de6e6606cee547d631434b7e18191506115219086906124a2565b60405180910390a150505050565b600b5490565b61153d611c9f565b6001600160a01b031661154e610b31565b6001600160a01b0316146115745760405162461bcd60e51b815260040161044c906123e5565b600260015414156115975760405162461bcd60e51b815260040161044c9061241a565b60026001556007805460009091556115af81476125d9565b50604051339082156108fc029083906000818181858888f193505050501580156115dd573d6000803e3d6000fd5b507f4e60501f434af3840e3d76dabba18982cf1ff93cad68dfa8daebca971baa2a1a60075460405161160f91906124a2565b60405180910390a15060018055565b600c818154811061073957600080fd5b6116386002611cf3565b60006116446002611cfc565b905060004290506040518060c0016040528083815260200187878080601f016020809104026020016040519081016040528093929190818152602001838380828437600092019190915250505090825250604080516020601f8801819004810282018101909252868152918101919087908790819084018382808284376000920191909152505050908252506020808201849052336040808401919091528051601f8c018390048302810183019091528a8152606090920191908b908b9081908401838280828437600092018290525093909452505084815260086020908152604090912083518155838201518051919350611747926001850192910190611d00565b5060408201518051611763916002840191602090910190611d00565b506060820151600382015560808201516004820180546001600160a01b0319166001600160a01b0390921691909117905560a082015180516117af916005840191602090910190611d00565b5050600b80546001810182556000919091527f0175b7a638427703f0dbe7bb9bbf987a2551717b34e79f33b5b1008d1fa01db9018390555060405182907f15f0768ddb29abfbb7cb3b54a0f082e5b441cf04715c8cb8226cc866fbfbba5b9061181b90849033906124ab565b60405180910390a25050505050505050565b6000828152600960205260409020548290811461185c5760405162461bcd60e51b815260040161044c90612319565b6000838152600a602090815260408083208584529091529020548390839081146118985760405162461bcd60e51b815260040161044c90612169565b600260015414156118bb5760405162461bcd60e51b815260040161044c9061241a565b600260018181556000878152600a602090815260408083208984529091529020918201549101546005546001600160a01b03909216918111156119105760405162461bcd60e51b815260040161044c90612227565b806005600082825461192291906125d9565b90915550611932905081476125d9565b506040516001600160a01b0383169082156108fc029083906000818181858888f19350505050158015611969573d6000803e3d6000fd5b506000878152600a602090815260408083208984529091528082208281556001810192909255600290910180546001600160a01b031916905551869088907f26ad9a48a900ea965adb7d7fd3f9552c907540683bac6687640cac5a933b9c6690610e1e903390612041565b6119dc611c9f565b6001600160a01b03166119ed610b31565b6001600160a01b031614611a135760405162461bcd60e51b815260040161044c906123e5565b6001600160a01b038116611a395760405162461bcd60e51b815260040161044c906121a0565b611a4281611ca3565b50565b611a4d611c9f565b6001600160a01b0316611a5e610b31565b6001600160a01b031614611a845760405162461bcd60e51b815260040161044c906123e5565b60068190556040517f5fb4654f1efe30c6141eaa6855ffcb27e0b361d899b05e21b1a4d0b3e71e14db90611ab99083906124a2565b60405180910390a150565b60086020526000908152604090208054600182018054919291611ae6906125f0565b80601f0160208091040260200160405190810160405280929190818152602001828054611b12906125f0565b8015611b5f5780601f10611b3457610100808354040283529160200191611b5f565b820191906000526020600020905b815481529060010190602001808311611b4257829003601f168201915b505050505090806002018054611b74906125f0565b80601f0160208091040260200160405190810160405280929190818152602001828054611ba0906125f0565b8015611bed5780601f10611bc257610100808354040283529160200191611bed565b820191906000526020600020905b815481529060010190602001808311611bd057829003601f168201915b5050505060038301546004840154600585018054949592946001600160a01b03909216935090611c1c906125f0565b80601f0160208091040260200160405190810160405280929190818152602001828054611c48906125f0565b8015611c955780601f10611c6a57610100808354040283529160200191611c95565b820191906000526020600020905b815481529060010190602001808311611c7857829003601f168201915b5050505050905086565b3390565b600080546001600160a01b038381166001600160a01b0319831681178455604051919092169283917f8be0079c531659141344cd1fd0a4f28419497f9722a3daafe3b4186f6b6457e09190a35050565b80546001019055565b5490565b828054611d0c906125f0565b90600052602060002090601f016020900481019282611d2e5760008555611d74565b82601f10611d4757805160ff1916838001178555611d74565b82800160010185558215611d74579182015b82811115611d74578251825591602001919060010190611d59565b50611d80929150611d84565b5090565b5b80821115611d805760008155600101611d85565b60008083601f840112611daa578081fd5b50813567ffffffffffffffff811115611dc1578182fd5b602083019150836020828501011115611dd957600080fd5b9250929050565b600060208284031215611df1578081fd5b8135611dfc81612657565b9392505050565b600060208284031215611e14578081fd5b8151611dfc81612657565b60008060008060008060608789031215611e37578182fd5b863567ffffffffffffffff80821115611e4e578384fd5b611e5a8a838b01611d99565b90985096506020890135915080821115611e72578384fd5b611e7e8a838b01611d99565b90965094506040890135915080821115611e96578384fd5b50611ea389828a01611d99565b979a9699509497509295939492505050565b60008060008060008060808789031215611ecd578182fd5b863567ffffffffffffffff80821115611ee4578384fd5b818901915089601f830112611ef7578384fd5b813581811115611f0957611f09612641565b604051601f8201601f19908116603f01168101908382118183101715611f3157611f31612641565b816040528281528c6020848701011115611f49578687fd5b826020860160208301378660208483010152809a505050506020890135915080821115611f74578384fd5b611f808a838b01611d99565b90975095506040890135915080821115611f98578384fd5b50611fa589828a01611d99565b979a9699509497949695606090950135949350505050565b600060208284031215611fce578081fd5b5035919050565b60008060408385031215611fe7578182fd5b50508035926020909101359150565b60008151808452815b8181101561201b57602081850181015186830182015201611fff565b8181111561202c5782602083870101525b50601f01601f19169290920160200192915050565b6001600160a01b0391909116815260200190565b6001600160a01b039384168152919092166020820152604081019190915260600190565b6001600160a01b039290921682521515602082015260400190565b600060018060a01b0385168252836020830152606060408301526120bb6060830184611ff6565b95945050505050565b9283526020830191909152604082015260600190565b60208082526025908201527f4d61726b6574706c6163653a206974656d206973206e6f74206f776e656420626040820152647920796f7560d81b606082015260800190565b6020808252602a908201527f4d61726b6574706c6163653a20796f752063616e206e6f742062696420796f7560408201526972206f776e206974656d60b01b606082015260800190565b60208082526018908201527f4d61726b6574706c6163653a206e6f2073756368206269640000000000000000604082015260600190565b60208082526026908201527f4f776e61626c653a206e6577206f776e657220697320746865207a65726f206160408201526564647265737360d01b606082015260800190565b60208082526021908201527f4d61726b6574706c6163653a206974656d206973206e6f7420666f722073616c6040820152606560f81b606082015260800190565b6020808252603c908201527f4d61726b6574706c6163653a205472616e73616374696f6e206661696c65642e60408201527f20436f6e747261637420686173206e6f7420656e6f7567682077656900000000606082015260800190565b6020808252602a908201527f4d61726b6574706c6163653a20796f752063616e206e6f742062757920796f7560408201526972206f776e206974656d60b01b606082015260800190565b6020808252602b908201527f4d61726b6574706c6163653a206f66666572206d757374206265206174206c6560408201526a617374206f6e652077656960a81b606082015260800190565b60208082526019908201527f4d61726b6574706c6163653a206e6f2073756368206974656d00000000000000604082015260600190565b60208082526023908201527f4d61726b6574706c6163653a206e6f20636f6c6c656374696f6e206f6620796f60408201526275727360e81b606082015260800190565b60208082526032908201527f4d61726b6574706c6163653a20616d6f756e74206d75737420626520657175616040820152716c20746f206c697374696e6720707269636560701b606082015260800190565b6020808252818101527f4f776e61626c653a2063616c6c6572206973206e6f7420746865206f776e6572604082015260600190565b6020808252601f908201527f5265656e7472616e637947756172643a207265656e7472616e742063616c6c00604082015260600190565b60208082526031908201527f4d61726b6574706c6163653a207072696365206d75737420626520657175616c60408201527020746f206c697374696e6720707269636560781b606082015260800190565b90815260200190565b9182526001600160a01b0316602082015260400190565b600087825260c060208301526124db60c0830188611ff6565b82810360408401526124ed8188611ff6565b606084018790526001600160a01b038616608085015283810360a085015290506125178185611ff6565b9998505050505050505050565b600088825260e0602083015261253d60e0830189611ff6565b828103604084015261254f8189611ff6565b9150508560608301528460808301528360a08301526002831061258257634e487b7160e01b600052602160045260246000fd5b8260c083015298975050505050505050565b918252602082015260400190565b92835260208301919091526001600160a01b0316604082015260600190565b600082198211156125d4576125d461262b565b500190565b6000828210156125eb576125eb61262b565b500390565b60028104600182168061260457607f821691505b6020821081141561262557634e487b7160e01b600052602260045260246000fd5b50919050565b634e487b7160e01b600052601160045260246000fd5b634e487b7160e01b600052604160045260246000fd5b6001600160a01b0381168114611a4257600080fdfea2646970667358221220ae3ca5778ced6e31931bf84d1a872451e6d2f6b3f7ef9bf8ab670621ba60563e64736f6c63430008010033",
  "linkReferences": {},
  "deployedLinkReferences": {}
}