{
  "_format": "hh-sol-artifact-1",
  "contractName": "NFTMarketPlace",
  "sourceName": "contracts/NFTMarketPlace.sol",
  "abi": [
    {
      "inputs": [
        {
          "internalType": "address",
          "name": "_marketItemAddress",
          "type": "address"
        }
      ],
      "stateMutability": "nonpayable",
      "type": "constructor"
    },
    {
      "anonymous": false,
      "inputs": [
        {
          "indexed": true,
          "internalType": "uint256",
          "name": "tokenId",
          "type": "uint256"
        },
        {
          "indexed": true,
          "internalType": "uint256",
          "name": "bidId",
          "type": "uint256"
        },
        {
          "indexed": false,
          "internalType": "uint256",
          "name": "amount",
          "type": "uint256"
        },
        {
          "indexed": false,
          "internalType": "address",
          "name": "bidder",
          "type": "address"
        }
      ],
      "name": "BidAccepted",
      "type": "event"
    },
    {
      "anonymous": false,
      "inputs": [
        {
          "indexed": true,
          "internalType": "uint256",
          "name": "tokenId",
          "type": "uint256"
        },
        {
          "indexed": true,
          "internalType": "uint256",
          "name": "bidId",
          "type": "uint256"
        },
        {
          "indexed": false,
          "internalType": "address",
          "name": "canceller",
          "type": "address"
        }
      ],
      "name": "BidCancelled",
      "type": "event"
    },
    {
      "anonymous": false,
      "inputs": [
        {
          "indexed": true,
          "internalType": "uint256",
          "name": "bidId",
          "type": "uint256"
        },
        {
          "indexed": false,
          "internalType": "uint256",
          "name": "price",
          "type": "uint256"
        },
        {
          "indexed": false,
          "internalType": "address",
          "name": "bidder",
          "type": "address"
        }
      ],
      "name": "BidCreated",
      "type": "event"
    },
    {
      "anonymous": false,
      "inputs": [
        {
          "indexed": false,
          "internalType": "uint256",
          "name": "itemId",
          "type": "uint256"
        }
      ],
      "name": "CancelMarketSale",
      "type": "event"
    },
    {
      "anonymous": false,
      "inputs": [
        {
          "indexed": true,
          "internalType": "uint256",
          "name": "collectionId",
          "type": "uint256"
        },
        {
          "indexed": false,
          "internalType": "uint256",
          "name": "createdOn",
          "type": "uint256"
        },
        {
          "indexed": false,
          "internalType": "address",
          "name": "creator",
          "type": "address"
        }
      ],
      "name": "CollectionCreated",
      "type": "event"
    },
    {
      "anonymous": false,
      "inputs": [
        {
          "indexed": false,
          "internalType": "uint256",
          "name": "itemId",
          "type": "uint256"
        },
        {
          "indexed": false,
          "internalType": "uint256",
          "name": "price",
          "type": "uint256"
        }
      ],
      "name": "CreateMarketSale",
      "type": "event"
    },
    {
      "anonymous": false,
      "inputs": [
        {
          "indexed": false,
          "internalType": "uint256",
          "name": "price",
          "type": "uint256"
        }
      ],
      "name": "Deposit",
      "type": "event"
    },
    {
      "anonymous": false,
      "inputs": [
        {
          "indexed": true,
          "internalType": "uint256",
          "name": "itemId",
          "type": "uint256"
        },
        {
          "indexed": false,
          "internalType": "address",
          "name": "buyer",
          "type": "address"
        },
        {
          "indexed": false,
          "internalType": "address",
          "name": "owner",
          "type": "address"
        },
        {
          "indexed": false,
          "internalType": "uint256",
          "name": "price",
          "type": "uint256"
        }
      ],
      "name": "ItemBought",
      "type": "event"
    },
    {
      "anonymous": false,
      "inputs": [
        {
          "indexed": true,
          "internalType": "uint256",
          "name": "itemId",
          "type": "uint256"
        },
        {
          "indexed": false,
          "internalType": "uint256",
          "name": "price",
          "type": "uint256"
        },
        {
          "indexed": false,
          "internalType": "uint256",
          "name": "collectionId",
          "type": "uint256"
        },
        {
          "indexed": false,
          "internalType": "uint256",
          "name": "createdOn",
          "type": "uint256"
        }
      ],
      "name": "ItemMinted",
      "type": "event"
    },
    {
      "anonymous": false,
      "inputs": [
        {
          "indexed": false,
          "internalType": "uint256",
          "name": "listingFee",
          "type": "uint256"
        }
      ],
      "name": "ListingFeeToOwner",
      "type": "event"
    },
    {
      "anonymous": false,
      "inputs": [
        {
          "indexed": false,
          "internalType": "uint256",
          "name": "newListingFee",
          "type": "uint256"
        }
      ],
      "name": "ListingFeeUpdated",
      "type": "event"
    },
    {
      "anonymous": false,
      "inputs": [
        {
          "indexed": true,
          "internalType": "address",
          "name": "previousOwner",
          "type": "address"
        },
        {
          "indexed": true,
          "internalType": "address",
          "name": "newOwner",
          "type": "address"
        }
      ],
      "name": "OwnershipTransferred",
      "type": "event"
    },
    {
      "inputs": [
        {
          "internalType": "uint256",
          "name": "tokenId",
          "type": "uint256"
        },
        {
          "internalType": "uint256",
          "name": "bidId",
          "type": "uint256"
        }
      ],
      "name": "acceptItemBid",
      "outputs": [],
      "stateMutability": "payable",
      "type": "function"
    },
    {
      "inputs": [
        {
          "internalType": "uint256",
          "name": "tokenId",
          "type": "uint256"
        }
      ],
      "name": "bidMarketItem",
      "outputs": [],
      "stateMutability": "payable",
      "type": "function"
    },
    {
      "inputs": [
        {
          "internalType": "uint256",
          "name": "",
          "type": "uint256"
        }
      ],
      "name": "bidsIds",
      "outputs": [
        {
          "internalType": "uint256",
          "name": "",
          "type": "uint256"
        }
      ],
      "stateMutability": "view",
      "type": "function"
    },
    {
      "inputs": [
        {
          "internalType": "uint256",
          "name": "tokenId",
          "type": "uint256"
        }
      ],
      "name": "buyMarketItem",
      "outputs": [],
      "stateMutability": "payable",
      "type": "function"
    },
    {
      "inputs": [
        {
          "internalType": "uint256",
          "name": "tokenId",
          "type": "uint256"
        },
        {
          "internalType": "uint256",
          "name": "bidId",
          "type": "uint256"
        }
      ],
      "name": "cancelItemBid",
      "outputs": [],
      "stateMutability": "payable",
      "type": "function"
    },
    {
      "inputs": [
        {
          "internalType": "uint256",
          "name": "tokenId",
          "type": "uint256"
        }
      ],
      "name": "cancelSale",
      "outputs": [],
      "stateMutability": "nonpayable",
      "type": "function"
    },
    {
      "inputs": [
        {
          "internalType": "uint256",
          "name": "",
          "type": "uint256"
        }
      ],
      "name": "collections",
      "outputs": [
        {
          "internalType": "uint256",
          "name": "collectionId",
          "type": "uint256"
        },
        {
          "internalType": "string",
          "name": "name",
          "type": "string"
        },
        {
          "internalType": "string",
          "name": "description",
          "type": "string"
        },
        {
          "internalType": "uint256",
          "name": "createdOn",
          "type": "uint256"
        },
        {
          "internalType": "address",
          "name": "creator",
          "type": "address"
        }
      ],
      "stateMutability": "view",
      "type": "function"
    },
    {
      "inputs": [
        {
          "internalType": "uint256",
          "name": "",
          "type": "uint256"
        }
      ],
      "name": "collectionsIds",
      "outputs": [
        {
          "internalType": "uint256",
          "name": "",
          "type": "uint256"
        }
      ],
      "stateMutability": "view",
      "type": "function"
    },
    {
      "inputs": [
        {
          "internalType": "string",
          "name": "name",
          "type": "string"
        },
        {
          "internalType": "string",
          "name": "description",
          "type": "string"
        }
      ],
      "name": "createCollection",
      "outputs": [],
      "stateMutability": "nonpayable",
      "type": "function"
    },
    {
      "inputs": [
        {
          "internalType": "uint256",
          "name": "tokenId",
          "type": "uint256"
        },
        {
          "internalType": "uint256",
          "name": "_price",
          "type": "uint256"
        }
      ],
      "name": "createSale",
      "outputs": [],
      "stateMutability": "payable",
      "type": "function"
    },
    {
      "inputs": [],
      "name": "getCollectionLength",
      "outputs": [
        {
          "internalType": "uint256",
          "name": "",
          "type": "uint256"
        }
      ],
      "stateMutability": "view",
      "type": "function"
    },
    {
      "inputs": [],
      "name": "getItemBidsLength",
      "outputs": [
        {
          "internalType": "uint256",
          "name": "",
          "type": "uint256"
        }
      ],
      "stateMutability": "view",
      "type": "function"
    },
    {
      "inputs": [],
      "name": "getLockedBidAmount",
      "outputs": [
        {
          "internalType": "uint256",
          "name": "",
          "type": "uint256"
        }
      ],
      "stateMutability": "view",
      "type": "function"
    },
    {
      "inputs": [],
      "name": "getMarketItemsLength",
      "outputs": [
        {
          "internalType": "uint256",
          "name": "",
          "type": "uint256"
        }
      ],
      "stateMutability": "view",
      "type": "function"
    },
    {
      "inputs": [
        {
          "internalType": "uint256",
          "name": "",
          "type": "uint256"
        },
        {
          "internalType": "uint256",
          "name": "",
          "type": "uint256"
        }
      ],
      "name": "itemBids",
      "outputs": [
        {
          "internalType": "uint256",
          "name": "bidId",
          "type": "uint256"
        },
        {
          "internalType": "uint256",
          "name": "amount",
          "type": "uint256"
        },
        {
          "internalType": "address payable",
          "name": "bidder",
          "type": "address"
        }
      ],
      "stateMutability": "view",
      "type": "function"
    },
    {
      "inputs": [
        {
          "internalType": "uint256",
          "name": "",
          "type": "uint256"
        }
      ],
      "name": "marketItems",
      "outputs": [
        {
          "internalType": "uint256",
          "name": "itemId",
          "type": "uint256"
        },
        {
          "internalType": "string",
          "name": "name",
          "type": "string"
        },
        {
          "internalType": "string",
          "name": "description",
          "type": "string"
        },
        {
          "internalType": "uint256",
          "name": "price",
          "type": "uint256"
        },
        {
          "internalType": "uint256",
          "name": "collectionId",
          "type": "uint256"
        },
        {
          "internalType": "uint256",
          "name": "createdOn",
          "type": "uint256"
        },
        {
          "internalType": "enum INFTMarketPlace.ItemListingStatus",
          "name": "status",
          "type": "uint8"
        }
      ],
      "stateMutability": "view",
      "type": "function"
    },
    {
      "inputs": [
        {
          "internalType": "uint256",
          "name": "",
          "type": "uint256"
        }
      ],
      "name": "marketItemsIds",
      "outputs": [
        {
          "internalType": "uint256",
          "name": "",
          "type": "uint256"
        }
      ],
      "stateMutability": "view",
      "type": "function"
    },
    {
      "inputs": [
        {
          "internalType": "string",
          "name": "tokenURI",
          "type": "string"
        },
        {
          "internalType": "string",
          "name": "name",
          "type": "string"
        },
        {
          "internalType": "string",
          "name": "description",
          "type": "string"
        },
        {
          "internalType": "uint256",
          "name": "collectionId",
          "type": "uint256"
        }
      ],
      "name": "mintToken",
      "outputs": [
        {
          "internalType": "uint256",
          "name": "",
          "type": "uint256"
        }
      ],
      "stateMutability": "payable",
      "type": "function"
    },
    {
      "inputs": [],
      "name": "owner",
      "outputs": [
        {
          "internalType": "address",
          "name": "",
          "type": "address"
        }
      ],
      "stateMutability": "view",
      "type": "function"
    },
    {
      "inputs": [],
      "name": "renounceOwnership",
      "outputs": [],
      "stateMutability": "nonpayable",
      "type": "function"
    },
    {
      "inputs": [],
      "name": "transferListingFee",
      "outputs": [],
      "stateMutability": "payable",
      "type": "function"
    },
    {
      "inputs": [
        {
          "internalType": "address",
          "name": "newOwner",
          "type": "address"
        }
      ],
      "name": "transferOwnership",
      "outputs": [],
      "stateMutability": "nonpayable",
      "type": "function"
    },
    {
      "inputs": [
        {
          "internalType": "uint256",
          "name": "_listingFee",
          "type": "uint256"
        }
      ],
      "name": "updateListingFee",
      "outputs": [],
      "stateMutability": "payable",
      "type": "function"
    },
    {
      "stateMutability": "payable",
      "type": "receive"
    }
  ],
  "bytecode": "0x60a060405260006005556658d15e1762800060065560006007553480156200002657600080fd5b50604051620026c8380380620026c88339810160408190526200004991620000cb565b6200005d6200005762000077565b6200007b565b6001805560601b6001600160601b031916608052620000fb565b3390565b600080546001600160a01b038381166001600160a01b0319831681178455604051919092169283917f8be0079c531659141344cd1fd0a4f28419497f9722a3daafe3b4186f6b6457e09190a35050565b600060208284031215620000dd578081fd5b81516001600160a01b0381168114620000f4578182fd5b9392505050565b60805160601c61256f62000159600039600081816106c5015281816107d901528181610a8001528181610b8601528181610cf201528181610e8d0152818161107701528181611326015281816114dd01526115e5015261256f6000f3fe6080604052600436106101445760003560e01c806392ce308c116100b6578063cd5a5bfd1161006f578063cd5a5bfd1461036b578063e7a2d22b14610373578063ee29b05814610393578063f2fde38b146103a6578063f79d91ae146103c6578063fdbda0ec146103d957610182565b806392ce308c146102dd57806398373d02146102f0578063b4a8e0a914610310578063b4eef73414610323578063bd94b00514610336578063c8c39aeb1461035657610182565b8063417b2dda11610108578063417b2dda1461023657806351f28e141461024b5780636019061b1461027e578063715018a6146102915780637f619390146102a65780638da5cb5b146102bb57610182565b8063108409cc14610187578063176b9b75146101b2578063229af4e7146101d4578063351901c3146102035780633fe83db11461021657610182565b36610182577f4d6ce1e535dbade1c23defba91e23b8f791ce5edc0cc320257a2b364e4e38426346040516101789190612383565b60405180910390a1005b600080fd5b34801561019357600080fd5b5061019c61040a565b6040516101a99190612383565b60405180910390f35b3480156101be57600080fd5b506101d26101cd366004611d2d565b61045b565b005b3480156101e057600080fd5b506101f46101ef366004611eb6565b6105fb565b6040516101a99392919061246f565b6101d2610211366004611e9e565b610630565b34801561022257600080fd5b5061019c610231366004611e9e565b6108c8565b34801561024257600080fd5b5061019c6108e9565b34801561025757600080fd5b5061026b610266366004611e9e565b6108ef565b6040516101a997969594939291906123f1565b6101d261028c366004611eb6565b610a3e565b34801561029d57600080fd5b506101d2610c7f565b3480156102b257600080fd5b5061019c610cca565b3480156102c757600080fd5b506102d0610cd0565b6040516101a99190611f22565b6101d26102eb366004611eb6565b610cdf565b3480156102fc57600080fd5b5061019c61030b366004611e9e565b610fd2565b61019c61031e366004611d96565b610fe2565b6101d2610331366004611e9e565b6112a1565b34801561034257600080fd5b506101d2610351366004611e9e565b61149b565b34801561036257600080fd5b5061019c6116ce565b6101d26116d4565b34801561037f57600080fd5b5061019c61038e366004611e9e565b6117bd565b6101d26103a1366004611eb6565b6117cd565b3480156103b257600080fd5b506101d26103c1366004611cee565b611974565b6101d26103d4366004611e9e565b6119e5565b3480156103e557600080fd5b506103f96103f4366004611e9e565b611a64565b6040516101a99594939291906123a3565b6000610414611bad565b6001600160a01b0316610425610cd0565b6001600160a01b0316146104545760405162461bcd60e51b815260040161044b906122c6565b60405180910390fd5b5060055490565b6104656002611bb1565b60006104716002611bba565b905060004290506040518060a0016040528083815260200187878080601f016020809104026020016040519081016040528093929190818152602001838380828437600092019190915250505090825250604080516020601f88018190048102820181019092528681529181019190879087908190840183828082843760009201829052509385525050506020808301859052336040938401528582526008815291902082518155828201518051919261053392600185019290910190611c0e565b506040820151805161054f916002840191602090910190611c0e565b5060608201516003820155608090910151600490910180546001600160a01b0319166001600160a01b03909216919091179055600b80546001810182556000919091527f0175b7a638427703f0dbe7bb9bbf987a2551717b34e79f33b5b1008d1fa01db90182905560405182907f15f0768ddb29abfbb7cb3b54a0f082e5b441cf04715c8cb8226cc866fbfbba5b906105eb908490339061238c565b60405180910390a2505050505050565b600a6020908152600092835260408084209091529082529020805460018201546002909201549091906001600160a01b031683565b600260015414156106535760405162461bcd60e51b815260040161044b906122fb565b6002600155806000808281526009602052604090206006015460ff16600181111561068e57634e487b7160e01b600052602160045260246000fd5b146106ab5760405162461bcd60e51b815260040161044b906120c7565b6040516331a9108f60e11b81526000906001600160a01b037f00000000000000000000000000000000000000000000000000000000000000001690636352211e906106fa908690600401612383565b60206040518083038186803b15801561071257600080fd5b505afa158015610726573d6000803e3d6000fd5b505050506040513d601f19601f8201168201806040525081019061074a9190611d11565b90506001600160a01b0381163314156107755760405162461bcd60e51b815260040161044b90612165565b60008381526009602052604090206003015434146107a55760405162461bcd60e51b815260040161044b90612274565b60008381526009602052604080822060038101929092556006909101805460ff19166001179055516323b872dd60e01b81527f00000000000000000000000000000000000000000000000000000000000000006001600160a01b0316906323b872dd9061081a90849033908890600401611f36565b600060405180830381600087803b15801561083457600080fd5b505af1158015610848573d6000803e3d6000fd5b50506040516001600160a01b03841692503480156108fc029250906000818181858888f19350505050158015610882573d6000803e3d6000fd5b50827f2aa91d32ed82c3bc263c0523e6d7ac2d014506daca62bf306caea7e0e497c2d43383346040516108b793929190611f36565b60405180910390a250506001805550565b600d81815481106108d857600080fd5b600091825260209091200154905081565b600d5490565b60096020526000908152604090208054600182018054919291610911906124bd565b80601f016020809104026020016040519081016040528092919081815260200182805461093d906124bd565b801561098a5780601f1061095f5761010080835404028352916020019161098a565b820191906000526020600020905b81548152906001019060200180831161096d57829003601f168201915b50505050509080600201805461099f906124bd565b80601f01602080910402602001604051908101604052809291908181526020018280546109cb906124bd565b8015610a185780601f106109ed57610100808354040283529160200191610a18565b820191906000526020600020905b8154815290600101906020018083116109fb57829003601f168201915b505050506003830154600484015460058501546006909501549394919390925060ff1687565b60008281526009602052604090205482908114610a6d5760405162461bcd60e51b815260040161044b906121fa565b6040516331a9108f60e11b8152839033907f00000000000000000000000000000000000000000000000000000000000000006001600160a01b031690636352211e90610abd908590600401612383565b60206040518083038186803b158015610ad557600080fd5b505afa158015610ae9573d6000803e3d6000fd5b505050506040513d601f19601f82011682018060405250810190610b0d9190611d11565b6001600160a01b031614610b335760405162461bcd60e51b815260040161044b90611fbb565b6006543414610b545760405162461bcd60e51b815260040161044b90612332565b60026001541415610b775760405162461bcd60e51b815260040161044b906122fb565b60026001556001600160a01b037f00000000000000000000000000000000000000000000000000000000000000001663a22cb465610bb3611bad565b60016040518363ffffffff1660e01b8152600401610bd2929190611f5a565b600060405180830381600087803b158015610bec57600080fd5b505af1158015610c00573d6000803e3d6000fd5b505050503460076000828254610c16919061248e565b90915550506000848152600960205260409081902060038101859055600601805460ff19169055517f6189b36f4038170e4c6d5d2481c1316a453b30a6f4d887d8e291c274d1f891ee90610c6d9086908690612461565b60405180910390a15050600180555050565b610c87611bad565b6001600160a01b0316610c98610cd0565b6001600160a01b031614610cbe5760405162461bcd60e51b815260040161044b906122c6565b610cc86000611bbe565b565b600c5490565b6000546001600160a01b031690565b6040516331a9108f60e11b8152829033907f00000000000000000000000000000000000000000000000000000000000000006001600160a01b031690636352211e90610d2f908590600401612383565b60206040518083038186803b158015610d4757600080fd5b505afa158015610d5b573d6000803e3d6000fd5b505050506040513d601f19601f82011682018060405250810190610d7f9190611d11565b6001600160a01b031614610da55760405162461bcd60e51b815260040161044b90611fbb565b6000838152600a60209081526040808320858452909152902054839083908114610de15760405162461bcd60e51b815260040161044b9061204a565b60026001541415610e045760405162461bcd60e51b815260040161044b906122fb565b600260018181556000878152600a602090815260408083208984529091529020918201549101546005546001600160a01b0390921691811115610e595760405162461bcd60e51b815260040161044b90612108565b60008781526009602052604080822060038101929092556006909101805460ff19166001179055516323b872dd60e01b81527f00000000000000000000000000000000000000000000000000000000000000006001600160a01b0316906323b872dd90610ece90339086908c90600401611f36565b600060405180830381600087803b158015610ee857600080fd5b505af1158015610efc573d6000803e3d6000fd5b505050508060056000828254610f1291906124a6565b90915550610f22905081476124a6565b50604051339082156108fc029083906000818181858888f19350505050158015610f50573d6000803e3d6000fd5b506000878152600a602090815260408083208984529091528082208281556001810192909255600290910180546001600160a01b031916905551869088907f9a6c30aa52e2150f2003a14c3eb666c1ae3dcc8661c51e2ab48ca88eed07823c90610fbd908590879061238c565b60405180910390a35050600180555050505050565b600b81815481106108d857600080fd5b6000600260015414156110075760405162461bcd60e51b815260040161044b906122fb565b60026001556000828152600860205260409020600401546001600160a01b031633146110455760405162461bcd60e51b815260040161044b90612231565b61104f6003611bb1565b600061105b6003611bba565b6040516320cdebf760e21b815290915042906001600160a01b037f00000000000000000000000000000000000000000000000000000000000000001690638337afdc906110b090339086908e90600401611f75565b600060405180830381600087803b1580156110ca57600080fd5b505af11580156110de573d6000803e3d6000fd5b505050506040518060e0016040528083815260200189898080601f016020809104026020016040519081016040528093929190818152602001838380828437600092019190915250505090825250604080516020601f8a01819004810282018101909252888152918101919089908990819084018382808284376000920182905250938552505050602082015260408101869052606081018390526080016001905260008381526009602090815260409091208251815582820151805191926111af92600185019290910190611c0e565b50604082015180516111cb916002840191602090910190611c0e565b50606082015160038201556080820151600482015560a0820151600582015560c082015160068201805460ff19166001838181111561121a57634e487b7160e01b600052602160045260246000fd5b021790555050600c805460018101825560009182527fdf6966c971051c3d54ec59162606531493a51404a002842f56009d7e5cf4a8c7018490556040518492507f20b783292d66c024794198f13faa7e7671cc3d2323d1c787416e8dfe266fdfec916112899188908690611fa5565b60405180910390a25060018055979650505050505050565b600081815260096020526040902054819081146112d05760405162461bcd60e51b815260040161044b906121fa565b600260015414156112f35760405162461bcd60e51b815260040161044b906122fb565b6002600155346113155760405162461bcd60e51b815260040161044b906121af565b6040516331a9108f60e11b815233907f00000000000000000000000000000000000000000000000000000000000000006001600160a01b031690636352211e90611363908690600401612383565b60206040518083038186803b15801561137b57600080fd5b505afa15801561138f573d6000803e3d6000fd5b505050506040513d601f19601f820116820180604052508101906113b39190611d11565b6001600160a01b031614156113da5760405162461bcd60e51b815260040161044b90612000565b6113e46004611bb1565b60006113f06004611bba565b90503460056000828254611404919061248e565b9091555050604080516060810182528281523460208083018281523384860181815260008a8152600a85528781208982529094529286902094518555905160018501559051600290930180546001600160a01b0319166001600160a01b0390941693909317909255915183927f8335194a78ed1f7eef3da42ceddf79ade8dc1d12fbb0623324b46c076cae60e8926108b79261238c565b600081815260096020526040902054819081146114ca5760405162461bcd60e51b815260040161044b906121fa565b6040516331a9108f60e11b8152829033907f00000000000000000000000000000000000000000000000000000000000000006001600160a01b031690636352211e9061151a908590600401612383565b60206040518083038186803b15801561153257600080fd5b505afa158015611546573d6000803e3d6000fd5b505050506040513d601f19601f8201168201806040525081019061156a9190611d11565b6001600160a01b0316146115905760405162461bcd60e51b815260040161044b90611fbb565b826000808281526009602052604090206006015460ff1660018111156115c657634e487b7160e01b600052602160045260246000fd5b146115e35760405162461bcd60e51b815260040161044b906120c7565b7f00000000000000000000000000000000000000000000000000000000000000006001600160a01b031663a22cb46561161a611bad565b60006040518363ffffffff1660e01b8152600401611639929190611f5a565b600060405180830381600087803b15801561165357600080fd5b505af1158015611667573d6000803e3d6000fd5b50505060008581526009602052604080822060038101929092556006909101805460ff19166001179055517f8fa1bb7b99ca89bcbb44993cdfed439877555de6e6606cee547d631434b7e18191506116c0908690612383565b60405180910390a150505050565b600b5490565b6116dc611bad565b6001600160a01b03166116ed610cd0565b6001600160a01b0316146117135760405162461bcd60e51b815260040161044b906122c6565b600260015414156117365760405162461bcd60e51b815260040161044b906122fb565b600260015560078054600090915561174e81476124a6565b50604051339082156108fc029083906000818181858888f1935050505015801561177c573d6000803e3d6000fd5b507f4e60501f434af3840e3d76dabba18982cf1ff93cad68dfa8daebca971baa2a1a6007546040516117ae9190612383565b60405180910390a15060018055565b600c81815481106108d857600080fd5b600082815260096020526040902054829081146117fc5760405162461bcd60e51b815260040161044b906121fa565b6000838152600a602090815260408083208584529091529020548390839081146118385760405162461bcd60e51b815260040161044b9061204a565b6002600154141561185b5760405162461bcd60e51b815260040161044b906122fb565b600260018181556000878152600a602090815260408083208984529091529020918201549101546005546001600160a01b03909216918111156118b05760405162461bcd60e51b815260040161044b90612108565b80600560008282546118c291906124a6565b909155506118d2905081476124a6565b506040516001600160a01b0383169082156108fc029083906000818181858888f19350505050158015611909573d6000803e3d6000fd5b506000878152600a602090815260408083208984529091528082208281556001810192909255600290910180546001600160a01b031916905551869088907f26ad9a48a900ea965adb7d7fd3f9552c907540683bac6687640cac5a933b9c6690610fbd903390611f22565b61197c611bad565b6001600160a01b031661198d610cd0565b6001600160a01b0316146119b35760405162461bcd60e51b815260040161044b906122c6565b6001600160a01b0381166119d95760405162461bcd60e51b815260040161044b90612081565b6119e281611bbe565b50565b6119ed611bad565b6001600160a01b03166119fe610cd0565b6001600160a01b031614611a245760405162461bcd60e51b815260040161044b906122c6565b60068190556040517f5fb4654f1efe30c6141eaa6855ffcb27e0b361d899b05e21b1a4d0b3e71e14db90611a59908390612383565b60405180910390a150565b60086020526000908152604090208054600182018054919291611a86906124bd565b80601f0160208091040260200160405190810160405280929190818152602001828054611ab2906124bd565b8015611aff5780601f10611ad457610100808354040283529160200191611aff565b820191906000526020600020905b815481529060010190602001808311611ae257829003601f168201915b505050505090806002018054611b14906124bd565b80601f0160208091040260200160405190810160405280929190818152602001828054611b40906124bd565b8015611b8d5780601f10611b6257610100808354040283529160200191611b8d565b820191906000526020600020905b815481529060010190602001808311611b7057829003601f168201915b5050505060038301546004909301549192916001600160a01b0316905085565b3390565b80546001019055565b5490565b600080546001600160a01b038381166001600160a01b0319831681178455604051919092169283917f8be0079c531659141344cd1fd0a4f28419497f9722a3daafe3b4186f6b6457e09190a35050565b828054611c1a906124bd565b90600052602060002090601f016020900481019282611c3c5760008555611c82565b82601f10611c5557805160ff1916838001178555611c82565b82800160010185558215611c82579182015b82811115611c82578251825591602001919060010190611c67565b50611c8e929150611c92565b5090565b5b80821115611c8e5760008155600101611c93565b60008083601f840112611cb8578081fd5b50813567ffffffffffffffff811115611ccf578182fd5b602083019150836020828501011115611ce757600080fd5b9250929050565b600060208284031215611cff578081fd5b8135611d0a81612524565b9392505050565b600060208284031215611d22578081fd5b8151611d0a81612524565b60008060008060408587031215611d42578283fd5b843567ffffffffffffffff80821115611d59578485fd5b611d6588838901611ca7565b90965094506020870135915080821115611d7d578384fd5b50611d8a87828801611ca7565b95989497509550505050565b60008060008060008060808789031215611dae578182fd5b863567ffffffffffffffff80821115611dc5578384fd5b818901915089601f830112611dd8578384fd5b813581811115611dea57611dea61250e565b604051601f8201601f19908116603f01168101908382118183101715611e1257611e1261250e565b816040528281528c6020848701011115611e2a578687fd5b826020860160208301378660208483010152809a505050506020890135915080821115611e55578384fd5b611e618a838b01611ca7565b90975095506040890135915080821115611e79578384fd5b50611e8689828a01611ca7565b979a9699509497949695606090950135949350505050565b600060208284031215611eaf578081fd5b5035919050565b60008060408385031215611ec8578182fd5b50508035926020909101359150565b60008151808452815b81811015611efc57602081850181015186830182015201611ee0565b81811115611f0d5782602083870101525b50601f01601f19169290920160200192915050565b6001600160a01b0391909116815260200190565b6001600160a01b039384168152919092166020820152604081019190915260600190565b6001600160a01b039290921682521515602082015260400190565b600060018060a01b038516825283602083015260606040830152611f9c6060830184611ed7565b95945050505050565b9283526020830191909152604082015260600190565b60208082526025908201527f4d61726b6574706c6163653a206974656d206973206e6f74206f776e656420626040820152647920796f7560d81b606082015260800190565b6020808252602a908201527f4d61726b6574706c6163653a20796f752063616e206e6f742062696420796f7560408201526972206f776e206974656d60b01b606082015260800190565b60208082526018908201527f4d61726b6574706c6163653a206e6f2073756368206269640000000000000000604082015260600190565b60208082526026908201527f4f776e61626c653a206e6577206f776e657220697320746865207a65726f206160408201526564647265737360d01b606082015260800190565b60208082526021908201527f4d61726b6574706c6163653a206974656d206973206e6f7420666f722073616c6040820152606560f81b606082015260800190565b6020808252603c908201527f4d61726b6574706c6163653a205472616e73616374696f6e206661696c65642e60408201527f20436f6e747261637420686173206e6f7420656e6f7567682077656900000000606082015260800190565b6020808252602a908201527f4d61726b6574706c6163653a20796f752063616e206e6f742062757920796f7560408201526972206f776e206974656d60b01b606082015260800190565b6020808252602b908201527f4d61726b6574706c6163653a206f66666572206d757374206265206174206c6560408201526a617374206f6e652077656960a81b606082015260800190565b60208082526019908201527f4d61726b6574706c6163653a206e6f2073756368206974656d00000000000000604082015260600190565b60208082526023908201527f4d61726b6574706c6163653a206e6f20636f6c6c656374696f6e206f6620796f60408201526275727360e81b606082015260800190565b60208082526032908201527f4d61726b6574706c6163653a20616d6f756e74206d75737420626520657175616040820152716c20746f206c697374696e6720707269636560701b606082015260800190565b6020808252818101527f4f776e61626c653a2063616c6c6572206973206e6f7420746865206f776e6572604082015260600190565b6020808252601f908201527f5265656e7472616e637947756172643a207265656e7472616e742063616c6c00604082015260600190565b60208082526031908201527f4d61726b6574706c6163653a207072696365206d75737420626520657175616c60408201527020746f206c697374696e6720707269636560781b606082015260800190565b90815260200190565b9182526001600160a01b0316602082015260400190565b600086825260a060208301526123bc60a0830187611ed7565b82810360408401526123ce8187611ed7565b606084019590955250506001600160a01b03919091166080909101529392505050565b600088825260e0602083015261240a60e0830189611ed7565b828103604084015261241c8189611ed7565b9150508560608301528460808301528360a08301526002831061244f57634e487b7160e01b600052602160045260246000fd5b8260c083015298975050505050505050565b918252602082015260400190565b92835260208301919091526001600160a01b0316604082015260600190565b600082198211156124a1576124a16124f8565b500190565b6000828210156124b8576124b86124f8565b500390565b6002810460018216806124d157607f821691505b602082108114156124f257634e487b7160e01b600052602260045260246000fd5b50919050565b634e487b7160e01b600052601160045260246000fd5b634e487b7160e01b600052604160045260246000fd5b6001600160a01b03811681146119e257600080fdfea26469706673582212206834b9faec3b3b49c2be1a0e6b5120b3bff9515d2798a38f190add888e21c4b264736f6c63430008010033",
  "linkReferences": {},
  "deployedLinkReferences": {}
}