{
  "_format": "hh-sol-artifact-1",
  "contractName": "NFTMarketItem",
  "sourceName": "contracts/NFTMarketItem.sol",
  "abi": [
    {
      "inputs": [],
      "stateMutability": "nonpayable",
      "type": "constructor"
    },
    {
      "anonymous": false,
      "inputs": [
        {
          "indexed": true,
          "internalType": "address",
          "name": "owner",
          "type": "address"
        },
        {
          "indexed": true,
          "internalType": "address",
          "name": "approved",
          "type": "address"
        },
        {
          "indexed": true,
          "internalType": "uint256",
          "name": "tokenId",
          "type": "uint256"
        }
      ],
      "name": "Approval",
      "type": "event"
    },
    {
      "anonymous": false,
      "inputs": [
        {
          "indexed": true,
          "internalType": "address",
          "name": "owner",
          "type": "address"
        },
        {
          "indexed": true,
          "internalType": "address",
          "name": "operator",
          "type": "address"
        },
        {
          "indexed": false,
          "internalType": "bool",
          "name": "approved",
          "type": "bool"
        }
      ],
      "name": "ApprovalForAll",
      "type": "event"
    },
    {
      "anonymous": false,
      "inputs": [
        {
          "indexed": true,
          "internalType": "address",
          "name": "from",
          "type": "address"
        },
        {
          "indexed": true,
          "internalType": "address",
          "name": "to",
          "type": "address"
        },
        {
          "indexed": true,
          "internalType": "uint256",
          "name": "tokenId",
          "type": "uint256"
        }
      ],
      "name": "Transfer",
      "type": "event"
    },
    {
      "inputs": [
        {
          "internalType": "address",
          "name": "to",
          "type": "address"
        },
        {
          "internalType": "uint256",
          "name": "tokenId",
          "type": "uint256"
        }
      ],
      "name": "approve",
      "outputs": [],
      "stateMutability": "nonpayable",
      "type": "function"
    },
    {
      "inputs": [
        {
          "internalType": "address",
          "name": "owner",
          "type": "address"
        }
      ],
      "name": "balanceOf",
      "outputs": [
        {
          "internalType": "uint256",
          "name": "",
          "type": "uint256"
        }
      ],
      "stateMutability": "view",
      "type": "function"
    },
    {
      "inputs": [
        {
          "internalType": "uint256",
          "name": "tokenId",
          "type": "uint256"
        }
      ],
      "name": "getApproved",
      "outputs": [
        {
          "internalType": "address",
          "name": "",
          "type": "address"
        }
      ],
      "stateMutability": "view",
      "type": "function"
    },
    {
      "inputs": [
        {
          "internalType": "address",
          "name": "owner",
          "type": "address"
        },
        {
          "internalType": "address",
          "name": "operator",
          "type": "address"
        }
      ],
      "name": "isApprovedForAll",
      "outputs": [
        {
          "internalType": "bool",
          "name": "",
          "type": "bool"
        }
      ],
      "stateMutability": "view",
      "type": "function"
    },
    {
      "inputs": [
        {
          "internalType": "address",
          "name": "owner",
          "type": "address"
        },
        {
          "internalType": "uint256",
          "name": "tokenId",
          "type": "uint256"
        },
        {
          "internalType": "string",
          "name": "tokenURI",
          "type": "string"
        }
      ],
      "name": "mintItem",
      "outputs": [],
      "stateMutability": "nonpayable",
      "type": "function"
    },
    {
      "inputs": [],
      "name": "name",
      "outputs": [
        {
          "internalType": "string",
          "name": "",
          "type": "string"
        }
      ],
      "stateMutability": "view",
      "type": "function"
    },
    {
      "inputs": [
        {
          "internalType": "uint256",
          "name": "tokenId",
          "type": "uint256"
        }
      ],
      "name": "ownerOf",
      "outputs": [
        {
          "internalType": "address",
          "name": "",
          "type": "address"
        }
      ],
      "stateMutability": "view",
      "type": "function"
    },
    {
      "inputs": [
        {
          "internalType": "address",
          "name": "from",
          "type": "address"
        },
        {
          "internalType": "address",
          "name": "to",
          "type": "address"
        },
        {
          "internalType": "uint256",
          "name": "tokenId",
          "type": "uint256"
        }
      ],
      "name": "safeTransferFrom",
      "outputs": [],
      "stateMutability": "nonpayable",
      "type": "function"
    },
    {
      "inputs": [
        {
          "internalType": "address",
          "name": "from",
          "type": "address"
        },
        {
          "internalType": "address",
          "name": "to",
          "type": "address"
        },
        {
          "internalType": "uint256",
          "name": "tokenId",
          "type": "uint256"
        },
        {
          "internalType": "bytes",
          "name": "_data",
          "type": "bytes"
        }
      ],
      "name": "safeTransferFrom",
      "outputs": [],
      "stateMutability": "nonpayable",
      "type": "function"
    },
    {
      "inputs": [
        {
          "internalType": "address",
          "name": "sender",
          "type": "address"
        },
        {
          "internalType": "bool",
          "name": "approved",
          "type": "bool"
        }
      ],
      "name": "setApprovalForAll",
      "outputs": [],
      "stateMutability": "nonpayable",
      "type": "function"
    },
    {
      "inputs": [
        {
          "internalType": "bytes4",
          "name": "interfaceId",
          "type": "bytes4"
        }
      ],
      "name": "supportsInterface",
      "outputs": [
        {
          "internalType": "bool",
          "name": "",
          "type": "bool"
        }
      ],
      "stateMutability": "view",
      "type": "function"
    },
    {
      "inputs": [],
      "name": "symbol",
      "outputs": [
        {
          "internalType": "string",
          "name": "",
          "type": "string"
        }
      ],
      "stateMutability": "view",
      "type": "function"
    },
    {
      "inputs": [
        {
          "internalType": "uint256",
          "name": "tokenId",
          "type": "uint256"
        }
      ],
      "name": "tokenURI",
      "outputs": [
        {
          "internalType": "string",
          "name": "",
          "type": "string"
        }
      ],
      "stateMutability": "view",
      "type": "function"
    },
    {
      "inputs": [
        {
          "internalType": "address",
          "name": "from",
          "type": "address"
        },
        {
          "internalType": "address",
          "name": "to",
          "type": "address"
        },
        {
          "internalType": "uint256",
          "name": "tokenId",
          "type": "uint256"
        }
      ],
      "name": "transferFrom",
      "outputs": [],
      "stateMutability": "nonpayable",
      "type": "function"
    }
  ],
  "bytecode": "0x60806040523480156200001157600080fd5b5060408051808201825260098152684c696d65426c6f636b60b81b6020808301918252835180850190945260038452622626a160e91b9084015281519192916200005e916000916200007d565b508051620000749060019060208401906200007d565b50505062000160565b8280546200008b9062000123565b90600052602060002090601f016020900481019282620000af5760008555620000fa565b82601f10620000ca57805160ff1916838001178555620000fa565b82800160010185558215620000fa579182015b82811115620000fa578251825591602001919060010190620000dd565b50620001089291506200010c565b5090565b5b808211156200010857600081556001016200010d565b6002810460018216806200013857607f821691505b602082108114156200015a57634e487b7160e01b600052602260045260246000fd5b50919050565b6117e080620001706000396000f3fe608060405234801561001057600080fd5b50600436106100ea5760003560e01c806370a082311161008c578063a22cb46511610066578063a22cb465146101d6578063b88d4fde146101e9578063c87b56dd146101fc578063e985e9c51461020f576100ea565b806370a082311461019b5780638337afdc146101bb57806395d89b41146101ce576100ea565b8063095ea7b3116100c8578063095ea7b31461014d57806323b872dd1461016257806342842e0e146101755780636352211e14610188576100ea565b806301ffc9a7146100ef57806306fdde0314610118578063081812fc1461012d575b600080fd5b6101026100fd3660046110cd565b610222565b60405161010f91906111c9565b60405180910390f35b61012061026a565b60405161010f91906111d4565b61014061013b366004611105565b6102fc565b60405161010f9190611178565b61016061015b366004611022565b610348565b005b610160610170366004610ed8565b6103e0565b610160610183366004610ed8565b610418565b610140610196366004611105565b610433565b6101ae6101a9366004610e8c565b610468565b60405161010f919061166d565b6101606101c936600461104b565b6104ac565b6101206104fc565b6101606101e4366004610fe8565b61050b565b6101606101f7366004610f13565b610521565b61012061020a366004611105565b61055a565b61010261021d366004610ea6565b61067b565b60006001600160e01b031982166380ac58cd60e01b148061025357506001600160e01b03198216635b5e139f60e01b145b806102625750610262826106a9565b90505b919050565b606060008054610279906116e5565b80601f01602080910402602001604051908101604052809291908181526020018280546102a5906116e5565b80156102f25780601f106102c7576101008083540402835291602001916102f2565b820191906000526020600020905b8154815290600101906020018083116102d557829003601f168201915b5050505050905090565b6000610307826106c2565b61032c5760405162461bcd60e51b815260040161032390611540565b60405180910390fd5b506000908152600460205260409020546001600160a01b031690565b600061035382610433565b9050806001600160a01b0316836001600160a01b031614156103875760405162461bcd60e51b8152600401610323906115db565b806001600160a01b03166103996106df565b6001600160a01b031614806103b557506103b58161021d6106df565b6103d15760405162461bcd60e51b81526004016103239061137c565b6103db83836106e3565b505050565b6103f16103eb6106df565b82610751565b61040d5760405162461bcd60e51b81526004016103239061161c565b6103db8383836107ce565b6103db83838360405180602001604052806000815250610521565b6000818152600260205260408120546001600160a01b0316806102625760405162461bcd60e51b815260040161032390611423565b60006001600160a01b0382166104905760405162461bcd60e51b8152600401610323906113d9565b506001600160a01b031660009081526003602052604090205490565b6104b68484610901565b6104f68383838080601f0160208091040260200160405190810160405280939291908181526020018383808284376000920191909152506109e892505050565b50505050565b606060018054610279906116e5565b61051d826105176106df565b83610a2c565b5050565b61053261052c6106df565b83610751565b61054e5760405162461bcd60e51b81526004016103239061161c565b6104f684848484610acf565b6060610565826106c2565b6105815760405162461bcd60e51b8152600401610323906114ef565b6000828152600660205260408120805461059a906116e5565b80601f01602080910402602001604051908101604052809291908181526020018280546105c6906116e5565b80156106135780601f106105e857610100808354040283529160200191610613565b820191906000526020600020905b8154815290600101906020018083116105f657829003601f168201915b505050505090506000610624610b02565b905080516000141561063857509050610265565b81511561066a578082604051602001610652929190611149565b60405160208183030381529060405292505050610265565b61067384610b14565b949350505050565b6001600160a01b03918216600090815260056020908152604080832093909416825291909152205460ff1690565b6001600160e01b031981166301ffc9a760e01b14919050565b6000908152600260205260409020546001600160a01b0316151590565b3390565b600081815260046020526040902080546001600160a01b0319166001600160a01b038416908117909155819061071882610433565b6001600160a01b03167f8c5be1e5ebec7d5bd14f71427d1e84f3dd0314c0f7b2291e5b200ac8c7c3b92560405160405180910390a45050565b600061075c826106c2565b6107785760405162461bcd60e51b815260040161032390611330565b600061078383610433565b9050806001600160a01b0316846001600160a01b031614806107be5750836001600160a01b03166107b3846102fc565b6001600160a01b0316145b806106735750610673818561067b565b826001600160a01b03166107e182610433565b6001600160a01b0316146108075760405162461bcd60e51b815260040161032390611239565b6001600160a01b03821661082d5760405162461bcd60e51b8152600401610323906112b5565b6108388383836103db565b6108436000826106e3565b6001600160a01b038316600090815260036020526040812080546001929061086c9084906116a2565b90915550506001600160a01b038216600090815260036020526040812080546001929061089a908490611676565b909155505060008181526002602052604080822080546001600160a01b0319166001600160a01b0386811691821790925591518493918716917fddf252ad1be2c89b69c2b068fc378daa952ba7f163c4a11628f55a4df523b3ef91a46103db8383836103db565b6001600160a01b0382166109275760405162461bcd60e51b8152600401610323906114ba565b610930816106c2565b1561094d5760405162461bcd60e51b81526004016103239061127e565b610959600083836103db565b6001600160a01b0382166000908152600360205260408120805460019290610982908490611676565b909155505060008181526002602052604080822080546001600160a01b0319166001600160a01b03861690811790915590518392907fddf252ad1be2c89b69c2b068fc378daa952ba7f163c4a11628f55a4df523b3ef908290a461051d600083836103db565b6109f1826106c2565b610a0d5760405162461bcd60e51b81526004016103239061146c565b600082815260066020908152604090912082516103db92840190610ddc565b816001600160a01b0316836001600160a01b03161415610a5e5760405162461bcd60e51b8152600401610323906112f9565b6001600160a01b0383811660008181526005602090815260408083209487168084529490915290819020805460ff1916851515179055517f17307eab39ab6107e8899845ad3d59bd9653f200f220920489ca2b5937696c3190610ac29085906111c9565b60405180910390a3505050565b610ada8484846107ce565b610ae684848484610b97565b6104f65760405162461bcd60e51b8152600401610323906111e7565b60408051602081019091526000815290565b6060610b1f826106c2565b610b3b5760405162461bcd60e51b81526004016103239061158c565b6000610b45610b02565b90506000815111610b655760405180602001604052806000815250610b90565b80610b6f84610cb2565b604051602001610b80929190611149565b6040516020818303038152906040525b9392505050565b6000610bab846001600160a01b0316610dcd565b15610ca757836001600160a01b031663150b7a02610bc76106df565b8786866040518563ffffffff1660e01b8152600401610be9949392919061118c565b602060405180830381600087803b158015610c0357600080fd5b505af1925050508015610c33575060408051601f3d908101601f19168201909252610c30918101906110e9565b60015b610c8d573d808015610c61576040519150601f19603f3d011682016040523d82523d6000602084013e610c66565b606091505b508051610c855760405162461bcd60e51b8152600401610323906111e7565b805181602001fd5b6001600160e01b031916630a85bd0160e11b149050610673565b506001949350505050565b606081610cd757506040805180820190915260018152600360fc1b6020820152610265565b8160005b8115610d015780610ceb81611720565b9150610cfa9050600a8361168e565b9150610cdb565b60008167ffffffffffffffff811115610d2a57634e487b7160e01b600052604160045260246000fd5b6040519080825280601f01601f191660200182016040528015610d54576020820181803683370190505b5090505b841561067357610d696001836116a2565b9150610d76600a8661173b565b610d81906030611676565b60f81b818381518110610da457634e487b7160e01b600052603260045260246000fd5b60200101906001600160f81b031916908160001a905350610dc6600a8661168e565b9450610d58565b6001600160a01b03163b151590565b828054610de8906116e5565b90600052602060002090601f016020900481019282610e0a5760008555610e50565b82601f10610e2357805160ff1916838001178555610e50565b82800160010185558215610e50579182015b82811115610e50578251825591602001919060010190610e35565b50610e5c929150610e60565b5090565b5b80821115610e5c5760008155600101610e61565b80356001600160a01b038116811461026557600080fd5b600060208284031215610e9d578081fd5b610b9082610e75565b60008060408385031215610eb8578081fd5b610ec183610e75565b9150610ecf60208401610e75565b90509250929050565b600080600060608486031215610eec578081fd5b610ef584610e75565b9250610f0360208501610e75565b9150604084013590509250925092565b60008060008060808587031215610f28578081fd5b610f3185610e75565b9350610f3f60208601610e75565b925060408501359150606085013567ffffffffffffffff80821115610f62578283fd5b818701915087601f830112610f75578283fd5b813581811115610f8757610f8761177b565b604051601f8201601f19908116603f01168101908382118183101715610faf57610faf61177b565b816040528281528a6020848701011115610fc7578586fd5b82602086016020830137918201602001949094529598949750929550505050565b60008060408385031215610ffa578182fd5b61100383610e75565b915060208301358015158114611017578182fd5b809150509250929050565b60008060408385031215611034578182fd5b61103d83610e75565b946020939093013593505050565b60008060008060608587031215611060578384fd5b61106985610e75565b935060208501359250604085013567ffffffffffffffff8082111561108c578384fd5b818701915087601f83011261109f578384fd5b8135818111156110ad578485fd5b8860208285010111156110be578485fd5b95989497505060200194505050565b6000602082840312156110de578081fd5b8135610b9081611791565b6000602082840312156110fa578081fd5b8151610b9081611791565b600060208284031215611116578081fd5b5035919050565b600081518084526111358160208601602086016116b9565b601f01601f19169290920160200192915050565b6000835161115b8184602088016116b9565b83519083019061116f8183602088016116b9565b01949350505050565b6001600160a01b0391909116815260200190565b6001600160a01b03858116825284166020820152604081018390526080606082018190526000906111bf9083018461111d565b9695505050505050565b901515815260200190565b600060208252610b90602083018461111d565b60208082526032908201527f4552433732313a207472616e7366657220746f206e6f6e20455243373231526560408201527131b2b4bb32b91034b6b83632b6b2b73a32b960711b606082015260800190565b60208082526025908201527f4552433732313a207472616e736665722066726f6d20696e636f72726563742060408201526437bbb732b960d91b606082015260800190565b6020808252601c908201527f4552433732313a20746f6b656e20616c7265616479206d696e74656400000000604082015260600190565b60208082526024908201527f4552433732313a207472616e7366657220746f20746865207a65726f206164646040820152637265737360e01b606082015260800190565b60208082526019908201527f4552433732313a20617070726f766520746f2063616c6c657200000000000000604082015260600190565b6020808252602c908201527f4552433732313a206f70657261746f7220717565727920666f72206e6f6e657860408201526b34b9ba32b73a103a37b5b2b760a11b606082015260800190565b60208082526038908201527f4552433732313a20617070726f76652063616c6c6572206973206e6f74206f7760408201527f6e6572206e6f7220617070726f76656420666f7220616c6c0000000000000000606082015260800190565b6020808252602a908201527f4552433732313a2062616c616e636520717565727920666f7220746865207a65604082015269726f206164647265737360b01b606082015260800190565b60208082526029908201527f4552433732313a206f776e657220717565727920666f72206e6f6e657869737460408201526832b73a103a37b5b2b760b91b606082015260800190565b6020808252602e908201527f45524337323155524953746f726167653a2055524920736574206f66206e6f6e60408201526d32bc34b9ba32b73a103a37b5b2b760911b606082015260800190565b6020808252818101527f4552433732313a206d696e7420746f20746865207a65726f2061646472657373604082015260600190565b60208082526031908201527f45524337323155524953746f726167653a2055524920717565727920666f72206040820152703737b732bc34b9ba32b73a103a37b5b2b760791b606082015260800190565b6020808252602c908201527f4552433732313a20617070726f76656420717565727920666f72206e6f6e657860408201526b34b9ba32b73a103a37b5b2b760a11b606082015260800190565b6020808252602f908201527f4552433732314d657461646174613a2055524920717565727920666f72206e6f60408201526e3732bc34b9ba32b73a103a37b5b2b760891b606082015260800190565b60208082526021908201527f4552433732313a20617070726f76616c20746f2063757272656e74206f776e656040820152603960f91b606082015260800190565b60208082526031908201527f4552433732313a207472616e736665722063616c6c6572206973206e6f74206f6040820152701ddb995c881b9bdc88185c1c1c9bdd9959607a1b606082015260800190565b90815260200190565b600082198211156116895761168961174f565b500190565b60008261169d5761169d611765565b500490565b6000828210156116b4576116b461174f565b500390565b60005b838110156116d45781810151838201526020016116bc565b838111156104f65750506000910152565b6002810460018216806116f957607f821691505b6020821081141561171a57634e487b7160e01b600052602260045260246000fd5b50919050565b60006000198214156117345761173461174f565b5060010190565b60008261174a5761174a611765565b500690565b634e487b7160e01b600052601160045260246000fd5b634e487b7160e01b600052601260045260246000fd5b634e487b7160e01b600052604160045260246000fd5b6001600160e01b0319811681146117a757600080fd5b5056fea264697066735822122057015850be4d5a3e415c052905844bbbe4189b99edf36e0c761f8bb2e0e5ae5b64736f6c63430008010033",
  "linkReferences": {},
  "deployedLinkReferences": {}
}