{
  "_format": "hh-sol-artifact-1",
  "contractName": "NFTMarketPlace",
  "sourceName": "contracts/NFTMarketPlace.sol",
  "abi": [
    {
      "inputs": [
        {
          "internalType": "address",
          "name": "_marketItemAddress",
          "type": "address"
        }
      ],
      "stateMutability": "nonpayable",
      "type": "constructor"
    },
    {
      "anonymous": false,
      "inputs": [
        {
          "indexed": true,
          "internalType": "uint256",
          "name": "tokenId",
          "type": "uint256"
        },
        {
          "indexed": true,
          "internalType": "uint256",
          "name": "bidId",
          "type": "uint256"
        },
        {
          "indexed": false,
          "internalType": "uint256",
          "name": "amount",
          "type": "uint256"
        },
        {
          "indexed": false,
          "internalType": "address",
          "name": "bidder",
          "type": "address"
        }
      ],
      "name": "BidAccepted",
      "type": "event"
    },
    {
      "anonymous": false,
      "inputs": [
        {
          "indexed": true,
          "internalType": "uint256",
          "name": "tokenId",
          "type": "uint256"
        },
        {
          "indexed": true,
          "internalType": "uint256",
          "name": "bidId",
          "type": "uint256"
        },
        {
          "indexed": false,
          "internalType": "address",
          "name": "canceller",
          "type": "address"
        }
      ],
      "name": "BidCancelled",
      "type": "event"
    },
    {
      "anonymous": false,
      "inputs": [
        {
          "indexed": true,
          "internalType": "uint256",
          "name": "bidId",
          "type": "uint256"
        },
        {
          "indexed": false,
          "internalType": "uint256",
          "name": "price",
          "type": "uint256"
        },
        {
          "indexed": false,
          "internalType": "address",
          "name": "bidder",
          "type": "address"
        }
      ],
      "name": "BidCreated",
      "type": "event"
    },
    {
      "anonymous": false,
      "inputs": [
        {
          "indexed": false,
          "internalType": "uint256",
          "name": "itemId",
          "type": "uint256"
        }
      ],
      "name": "CancelMarketSale",
      "type": "event"
    },
    {
      "anonymous": false,
      "inputs": [
        {
          "indexed": true,
          "internalType": "uint256",
          "name": "collectionId",
          "type": "uint256"
        },
        {
          "indexed": false,
          "internalType": "uint256",
          "name": "createdOn",
          "type": "uint256"
        },
        {
          "indexed": false,
          "internalType": "address",
          "name": "creator",
          "type": "address"
        }
      ],
      "name": "CollectionCreated",
      "type": "event"
    },
    {
      "anonymous": false,
      "inputs": [
        {
          "indexed": false,
          "internalType": "uint256",
          "name": "itemId",
          "type": "uint256"
        },
        {
          "indexed": false,
          "internalType": "uint256",
          "name": "price",
          "type": "uint256"
        }
      ],
      "name": "CreateMarketSale",
      "type": "event"
    },
    {
      "anonymous": false,
      "inputs": [
        {
          "indexed": false,
          "internalType": "uint256",
          "name": "price",
          "type": "uint256"
        }
      ],
      "name": "Deposit",
      "type": "event"
    },
    {
      "anonymous": false,
      "inputs": [
        {
          "indexed": true,
          "internalType": "uint256",
          "name": "itemId",
          "type": "uint256"
        },
        {
          "indexed": false,
          "internalType": "address",
          "name": "buyer",
          "type": "address"
        },
        {
          "indexed": false,
          "internalType": "address",
          "name": "owner",
          "type": "address"
        },
        {
          "indexed": false,
          "internalType": "uint256",
          "name": "price",
          "type": "uint256"
        }
      ],
      "name": "ItemBought",
      "type": "event"
    },
    {
      "anonymous": false,
      "inputs": [
        {
          "indexed": true,
          "internalType": "uint256",
          "name": "itemId",
          "type": "uint256"
        },
        {
          "indexed": false,
          "internalType": "uint256",
          "name": "price",
          "type": "uint256"
        },
        {
          "indexed": false,
          "internalType": "uint256",
          "name": "collectionId",
          "type": "uint256"
        },
        {
          "indexed": false,
          "internalType": "uint256",
          "name": "createdOn",
          "type": "uint256"
        }
      ],
      "name": "ItemMinted",
      "type": "event"
    },
    {
      "anonymous": false,
      "inputs": [
        {
          "indexed": false,
          "internalType": "uint256",
          "name": "listingFee",
          "type": "uint256"
        }
      ],
      "name": "ListingFeeToOwner",
      "type": "event"
    },
    {
      "anonymous": false,
      "inputs": [
        {
          "indexed": false,
          "internalType": "uint256",
          "name": "newListingFee",
          "type": "uint256"
        }
      ],
      "name": "ListingFeeUpdated",
      "type": "event"
    },
    {
      "anonymous": false,
      "inputs": [
        {
          "indexed": true,
          "internalType": "address",
          "name": "previousOwner",
          "type": "address"
        },
        {
          "indexed": true,
          "internalType": "address",
          "name": "newOwner",
          "type": "address"
        }
      ],
      "name": "OwnershipTransferred",
      "type": "event"
    },
    {
      "inputs": [
        {
          "internalType": "uint256",
          "name": "tokenId",
          "type": "uint256"
        },
        {
          "internalType": "uint256",
          "name": "bidId",
          "type": "uint256"
        }
      ],
      "name": "acceptItemBid",
      "outputs": [],
      "stateMutability": "payable",
      "type": "function"
    },
    {
      "inputs": [
        {
          "internalType": "uint256",
          "name": "tokenId",
          "type": "uint256"
        }
      ],
      "name": "bidMarketItem",
      "outputs": [],
      "stateMutability": "payable",
      "type": "function"
    },
    {
      "inputs": [
        {
          "internalType": "uint256",
          "name": "",
          "type": "uint256"
        }
      ],
      "name": "bidsIds",
      "outputs": [
        {
          "internalType": "uint256",
          "name": "",
          "type": "uint256"
        }
      ],
      "stateMutability": "view",
      "type": "function"
    },
    {
      "inputs": [
        {
          "internalType": "uint256",
          "name": "tokenId",
          "type": "uint256"
        }
      ],
      "name": "buyMarketItem",
      "outputs": [],
      "stateMutability": "payable",
      "type": "function"
    },
    {
      "inputs": [
        {
          "internalType": "uint256",
          "name": "tokenId",
          "type": "uint256"
        },
        {
          "internalType": "uint256",
          "name": "bidId",
          "type": "uint256"
        }
      ],
      "name": "cancelItemBid",
      "outputs": [],
      "stateMutability": "payable",
      "type": "function"
    },
    {
      "inputs": [
        {
          "internalType": "uint256",
          "name": "tokenId",
          "type": "uint256"
        }
      ],
      "name": "cancelSale",
      "outputs": [],
      "stateMutability": "nonpayable",
      "type": "function"
    },
    {
      "inputs": [
        {
          "internalType": "address",
          "name": "creator",
          "type": "address"
        },
        {
          "internalType": "string",
          "name": "image",
          "type": "string"
        }
      ],
      "name": "changeCreatorImage",
      "outputs": [],
      "stateMutability": "nonpayable",
      "type": "function"
    },
    {
      "inputs": [
        {
          "internalType": "address",
          "name": "creator",
          "type": "address"
        },
        {
          "internalType": "string",
          "name": "name",
          "type": "string"
        }
      ],
      "name": "changeCreatorName",
      "outputs": [],
      "stateMutability": "nonpayable",
      "type": "function"
    },
    {
      "inputs": [
        {
          "internalType": "uint256",
          "name": "",
          "type": "uint256"
        }
      ],
      "name": "collections",
      "outputs": [
        {
          "internalType": "uint256",
          "name": "collectionId",
          "type": "uint256"
        },
        {
          "internalType": "string",
          "name": "name",
          "type": "string"
        },
        {
          "internalType": "string",
          "name": "description",
          "type": "string"
        },
        {
          "internalType": "uint256",
          "name": "createdOn",
          "type": "uint256"
        },
        {
          "internalType": "address",
          "name": "creator",
          "type": "address"
        },
        {
          "internalType": "string",
          "name": "image",
          "type": "string"
        }
      ],
      "stateMutability": "view",
      "type": "function"
    },
    {
      "inputs": [
        {
          "internalType": "uint256",
          "name": "",
          "type": "uint256"
        }
      ],
      "name": "collectionsIds",
      "outputs": [
        {
          "internalType": "uint256",
          "name": "",
          "type": "uint256"
        }
      ],
      "stateMutability": "view",
      "type": "function"
    },
    {
      "inputs": [
        {
          "internalType": "string",
          "name": "image",
          "type": "string"
        },
        {
          "internalType": "string",
          "name": "name",
          "type": "string"
        },
        {
          "internalType": "string",
          "name": "description",
          "type": "string"
        }
      ],
      "name": "createCollection",
      "outputs": [],
      "stateMutability": "nonpayable",
      "type": "function"
    },
    {
      "inputs": [
        {
          "internalType": "uint256",
          "name": "tokenId",
          "type": "uint256"
        },
        {
          "internalType": "uint256",
          "name": "_price",
          "type": "uint256"
        }
      ],
      "name": "createSale",
      "outputs": [],
      "stateMutability": "payable",
      "type": "function"
    },
    {
      "inputs": [
        {
          "internalType": "address",
          "name": "",
          "type": "address"
        }
      ],
      "name": "creatorsInfo",
      "outputs": [
        {
          "internalType": "string",
          "name": "name",
          "type": "string"
        },
        {
          "internalType": "string",
          "name": "image",
          "type": "string"
        }
      ],
      "stateMutability": "view",
      "type": "function"
    },
    {
      "inputs": [],
      "name": "getCollectionLength",
      "outputs": [
        {
          "internalType": "uint256",
          "name": "",
          "type": "uint256"
        }
      ],
      "stateMutability": "view",
      "type": "function"
    },
    {
      "inputs": [],
      "name": "getItemBidsLength",
      "outputs": [
        {
          "internalType": "uint256",
          "name": "",
          "type": "uint256"
        }
      ],
      "stateMutability": "view",
      "type": "function"
    },
    {
      "inputs": [],
      "name": "getListingFee",
      "outputs": [
        {
          "internalType": "uint256",
          "name": "",
          "type": "uint256"
        }
      ],
      "stateMutability": "view",
      "type": "function"
    },
    {
      "inputs": [],
      "name": "getLockedBidAmount",
      "outputs": [
        {
          "internalType": "uint256",
          "name": "",
          "type": "uint256"
        }
      ],
      "stateMutability": "view",
      "type": "function"
    },
    {
      "inputs": [],
      "name": "getMarketItemsLength",
      "outputs": [
        {
          "internalType": "uint256",
          "name": "",
          "type": "uint256"
        }
      ],
      "stateMutability": "view",
      "type": "function"
    },
    {
      "inputs": [
        {
          "internalType": "uint256",
          "name": "",
          "type": "uint256"
        },
        {
          "internalType": "uint256",
          "name": "",
          "type": "uint256"
        }
      ],
      "name": "itemBids",
      "outputs": [
        {
          "internalType": "uint256",
          "name": "bidId",
          "type": "uint256"
        },
        {
          "internalType": "uint256",
          "name": "amount",
          "type": "uint256"
        },
        {
          "internalType": "address payable",
          "name": "bidder",
          "type": "address"
        }
      ],
      "stateMutability": "view",
      "type": "function"
    },
    {
      "inputs": [
        {
          "internalType": "uint256",
          "name": "",
          "type": "uint256"
        }
      ],
      "name": "marketItems",
      "outputs": [
        {
          "internalType": "uint256",
          "name": "itemId",
          "type": "uint256"
        },
        {
          "internalType": "string",
          "name": "name",
          "type": "string"
        },
        {
          "internalType": "string",
          "name": "description",
          "type": "string"
        },
        {
          "internalType": "uint256",
          "name": "price",
          "type": "uint256"
        },
        {
          "internalType": "uint256",
          "name": "collectionId",
          "type": "uint256"
        },
        {
          "internalType": "uint256",
          "name": "createdOn",
          "type": "uint256"
        },
        {
          "internalType": "enum INFTMarketPlace.ItemListingStatus",
          "name": "status",
          "type": "uint8"
        }
      ],
      "stateMutability": "view",
      "type": "function"
    },
    {
      "inputs": [
        {
          "internalType": "uint256",
          "name": "",
          "type": "uint256"
        }
      ],
      "name": "marketItemsIds",
      "outputs": [
        {
          "internalType": "uint256",
          "name": "",
          "type": "uint256"
        }
      ],
      "stateMutability": "view",
      "type": "function"
    },
    {
      "inputs": [
        {
          "internalType": "string",
          "name": "tokenURI",
          "type": "string"
        },
        {
          "internalType": "string",
          "name": "name",
          "type": "string"
        },
        {
          "internalType": "string",
          "name": "description",
          "type": "string"
        },
        {
          "internalType": "uint256",
          "name": "collectionId",
          "type": "uint256"
        }
      ],
      "name": "mintToken",
      "outputs": [
        {
          "internalType": "uint256",
          "name": "",
          "type": "uint256"
        }
      ],
      "stateMutability": "payable",
      "type": "function"
    },
    {
      "inputs": [],
      "name": "owner",
      "outputs": [
        {
          "internalType": "address",
          "name": "",
          "type": "address"
        }
      ],
      "stateMutability": "view",
      "type": "function"
    },
    {
      "inputs": [],
      "name": "renounceOwnership",
      "outputs": [],
      "stateMutability": "nonpayable",
      "type": "function"
    },
    {
      "inputs": [],
      "name": "transferListingFee",
      "outputs": [],
      "stateMutability": "payable",
      "type": "function"
    },
    {
      "inputs": [
        {
          "internalType": "address",
          "name": "newOwner",
          "type": "address"
        }
      ],
      "name": "transferOwnership",
      "outputs": [],
      "stateMutability": "nonpayable",
      "type": "function"
    },
    {
      "inputs": [
        {
          "internalType": "uint256",
          "name": "_listingFee",
          "type": "uint256"
        }
      ],
      "name": "updateListingFee",
      "outputs": [],
      "stateMutability": "payable",
      "type": "function"
    },
    {
      "stateMutability": "payable",
      "type": "receive"
    }
  ],
  "bytecode": "0x60a060405260006005556658d15e1762800060065560006007553480156200002657600080fd5b5060405162002bd938038062002bd98339810160408190526200004991620000cb565b6200005d6200005762000077565b6200007b565b6001805560601b6001600160601b031916608052620000fb565b3390565b600080546001600160a01b038381166001600160a01b0319831681178455604051919092169283917f8be0079c531659141344cd1fd0a4f28419497f9722a3daafe3b4186f6b6457e09190a35050565b600060208284031215620000dd578081fd5b81516001600160a01b0381168114620000f4578182fd5b9392505050565b60805160601c612a8062000159600039600081816106050152818161071901528181610a1101528181610b1701528181610daf01528181610f4a01528181611134015281816113e3015281816115a001526116a80152612a806000f3fe6080604052600436106101a05760003560e01c806398373d02116100ec578063cd5a5bfd1161008a578063ee29b05811610064578063ee29b05814610472578063f2fde38b14610485578063f79d91ae146104a5578063fdbda0ec146104b8576101de565b8063cd5a5bfd1461042a578063e7a2d22b14610432578063ece86c2114610452576101de565b8063b8fe6abe116100c6578063b8fe6abe146103c0578063bd94b005146103d5578063be059c97146103f5578063c8c39aeb14610415576101de565b806398373d021461037a578063b4a8e0a91461039a578063b4eef734146103ad576101de565b806353c479db1161015957806375d4c7fa1161013357806375d4c7fa146103025780637f619390146103305780638da5cb5b1461034557806392ce308c14610367576101de565b806353c479db146102ba5780636019061b146102da578063715018a6146102ed576101de565b8063108409cc146101e3578063229af4e71461020e578063351901c31461023d5780633fe83db114610252578063417b2dda1461027257806351f28e1414610287576101de565b366101de577f4d6ce1e535dbade1c23defba91e23b8f791ce5edc0cc320257a2b364e4e38426346040516101d49190612880565b60405180910390a1005b600080fd5b3480156101ef57600080fd5b506101f86104ea565b6040516102059190612880565b60405180910390f35b34801561021a57600080fd5b5061022e61022936600461234c565b61053b565b60405161020593929190612980565b61025061024b366004612334565b610570565b005b34801561025e57600080fd5b506101f861026d366004612334565b610808565b34801561027e57600080fd5b506101f8610829565b34801561029357600080fd5b506102a76102a2366004612334565b61082f565b6040516102059796959493929190612902565b3480156102c657600080fd5b506102506102d5366004612143565b61097e565b6102506102e836600461234c565b6109cf565b3480156102f957600080fd5b50610250610c10565b34801561030e57600080fd5b5061032261031d366004612104565b610c5b565b604051610205929190612451565b34801561033c57600080fd5b506101f8610d87565b34801561035157600080fd5b5061035a610d8d565b60405161020591906123b8565b61025061037536600461234c565b610d9c565b34801561038657600080fd5b506101f8610395366004612334565b61108f565b6101f86103a836600461222c565b61109f565b6102506103bb366004612334565b61135e565b3480156103cc57600080fd5b506101f8611558565b3480156103e157600080fd5b506102506103f0366004612334565b61155e565b34801561040157600080fd5b50610250610410366004612143565b611791565b34801561042157600080fd5b506101f86117df565b6102506117e5565b34801561043e57600080fd5b506101f861044d366004612334565b6118ce565b34801561045e57600080fd5b5061025061046d366004612196565b6118de565b61025061048036600461234c565b611add565b34801561049157600080fd5b506102506104a0366004612104565b611c84565b6102506104b3366004612334565b611cf5565b3480156104c457600080fd5b506104d86104d3366004612334565b611d74565b604051610205969594939291906128a0565b60006104f4611f4f565b6001600160a01b0316610505610d8d565b6001600160a01b0316146105345760405162461bcd60e51b815260040161052b90612781565b60405180910390fd5b5060055490565b600a6020908152600092835260408084209091529082529020805460018201546002909201549091906001600160a01b031683565b600260015414156105935760405162461bcd60e51b815260040161052b906127f8565b6002600155806000808281526009602052604090206006015460ff1660018111156105ce57634e487b7160e01b600052602160045260246000fd5b146105eb5760405162461bcd60e51b815260040161052b90612582565b6040516331a9108f60e11b81526000906001600160a01b037f00000000000000000000000000000000000000000000000000000000000000001690636352211e9061063a908690600401612880565b60206040518083038186803b15801561065257600080fd5b505afa158015610666573d6000803e3d6000fd5b505050506040513d601f19601f8201168201806040525081019061068a9190612127565b90506001600160a01b0381163314156106b55760405162461bcd60e51b815260040161052b90612620565b60008381526009602052604090206003015434146106e55760405162461bcd60e51b815260040161052b9061272f565b60008381526009602052604080822060038101929092556006909101805460ff19166001179055516323b872dd60e01b81527f00000000000000000000000000000000000000000000000000000000000000006001600160a01b0316906323b872dd9061075a908490339088906004016123cc565b600060405180830381600087803b15801561077457600080fd5b505af1158015610788573d6000803e3d6000fd5b50506040516001600160a01b03841692503480156108fc029250906000818181858888f193505050501580156107c2573d6000803e3d6000fd5b50827f2aa91d32ed82c3bc263c0523e6d7ac2d014506daca62bf306caea7e0e497c2d43383346040516107f7939291906123cc565b60405180910390a250506001805550565b600e818154811061081857600080fd5b600091825260209091200154905081565b600e5490565b60096020526000908152604090208054600182018054919291610851906129ce565b80601f016020809104026020016040519081016040528092919081815260200182805461087d906129ce565b80156108ca5780601f1061089f576101008083540402835291602001916108ca565b820191906000526020600020905b8154815290600101906020018083116108ad57829003601f168201915b5050505050908060020180546108df906129ce565b80601f016020809104026020016040519081016040528092919081815260200182805461090b906129ce565b80156109585780601f1061092d57610100808354040283529160200191610958565b820191906000526020600020905b81548152906001019060200180831161093b57829003601f168201915b505050506003830154600484015460058501546006909501549394919390925060ff1687565b6001600160a01b03831633146109a65760405162461bcd60e51b815260040161052b906127b6565b6001600160a01b0383166000908152600b602052604090206109c9908383611fb0565b50505050565b600082815260096020526040902054829081146109fe5760405162461bcd60e51b815260040161052b906126b5565b6040516331a9108f60e11b8152839033907f00000000000000000000000000000000000000000000000000000000000000006001600160a01b031690636352211e90610a4e908590600401612880565b60206040518083038186803b158015610a6657600080fd5b505afa158015610a7a573d6000803e3d6000fd5b505050506040513d601f19601f82011682018060405250810190610a9e9190612127565b6001600160a01b031614610ac45760405162461bcd60e51b815260040161052b90612476565b6006543414610ae55760405162461bcd60e51b815260040161052b9061282f565b60026001541415610b085760405162461bcd60e51b815260040161052b906127f8565b60026001556001600160a01b037f00000000000000000000000000000000000000000000000000000000000000001663a22cb465610b44611f4f565b60016040518363ffffffff1660e01b8152600401610b639291906123f0565b600060405180830381600087803b158015610b7d57600080fd5b505af1158015610b91573d6000803e3d6000fd5b505050503460076000828254610ba7919061299f565b90915550506000848152600960205260409081902060038101859055600601805460ff19169055517f6189b36f4038170e4c6d5d2481c1316a453b30a6f4d887d8e291c274d1f891ee90610bfe9086908690612972565b60405180910390a15050600180555050565b610c18611f4f565b6001600160a01b0316610c29610d8d565b6001600160a01b031614610c4f5760405162461bcd60e51b815260040161052b90612781565b610c596000611f53565b565b600b60205260009081526040902080548190610c76906129ce565b80601f0160208091040260200160405190810160405280929190818152602001828054610ca2906129ce565b8015610cef5780601f10610cc457610100808354040283529160200191610cef565b820191906000526020600020905b815481529060010190602001808311610cd257829003601f168201915b505050505090806001018054610d04906129ce565b80601f0160208091040260200160405190810160405280929190818152602001828054610d30906129ce565b8015610d7d5780601f10610d5257610100808354040283529160200191610d7d565b820191906000526020600020905b815481529060010190602001808311610d6057829003601f168201915b5050505050905082565b600d5490565b6000546001600160a01b031690565b6040516331a9108f60e11b8152829033907f00000000000000000000000000000000000000000000000000000000000000006001600160a01b031690636352211e90610dec908590600401612880565b60206040518083038186803b158015610e0457600080fd5b505afa158015610e18573d6000803e3d6000fd5b505050506040513d601f19601f82011682018060405250810190610e3c9190612127565b6001600160a01b031614610e625760405162461bcd60e51b815260040161052b90612476565b6000838152600a60209081526040808320858452909152902054839083908114610e9e5760405162461bcd60e51b815260040161052b90612505565b60026001541415610ec15760405162461bcd60e51b815260040161052b906127f8565b600260018181556000878152600a602090815260408083208984529091529020918201549101546005546001600160a01b0390921691811115610f165760405162461bcd60e51b815260040161052b906125c3565b60008781526009602052604080822060038101929092556006909101805460ff19166001179055516323b872dd60e01b81527f00000000000000000000000000000000000000000000000000000000000000006001600160a01b0316906323b872dd90610f8b90339086908c906004016123cc565b600060405180830381600087803b158015610fa557600080fd5b505af1158015610fb9573d6000803e3d6000fd5b505050508060056000828254610fcf91906129b7565b90915550610fdf905081476129b7565b50604051339082156108fc029083906000818181858888f1935050505015801561100d573d6000803e3d6000fd5b506000878152600a602090815260408083208984529091528082208281556001810192909255600290910180546001600160a01b031916905551869088907f9a6c30aa52e2150f2003a14c3eb666c1ae3dcc8661c51e2ab48ca88eed07823c9061107a9085908790612889565b60405180910390a35050600180555050505050565b600c818154811061081857600080fd5b6000600260015414156110c45760405162461bcd60e51b815260040161052b906127f8565b60026001556000828152600860205260409020600401546001600160a01b031633146111025760405162461bcd60e51b815260040161052b906126ec565b61110c6003611fa3565b60006111186003611fac565b6040516320cdebf760e21b815290915042906001600160a01b037f00000000000000000000000000000000000000000000000000000000000000001690638337afdc9061116d90339086908e9060040161240b565b600060405180830381600087803b15801561118757600080fd5b505af115801561119b573d6000803e3d6000fd5b505050506040518060e0016040528083815260200189898080601f016020809104026020016040519081016040528093929190818152602001838380828437600092019190915250505090825250604080516020601f8a018190048102820181019092528881529181019190899089908190840183828082843760009201829052509385525050506020820152604081018690526060810183905260800160019052600083815260096020908152604090912082518155828201518051919261126c92600185019290910190612034565b5060408201518051611288916002840191602090910190612034565b50606082015160038201556080820151600482015560a0820151600582015560c082015160068201805460ff1916600183818111156112d757634e487b7160e01b600052602160045260246000fd5b021790555050600d805460018101825560009182527fd7b6990105719101dabeb77144f2a3385c8033acd3af97e9423a695e81ad1eb5018490556040518492507f20b783292d66c024794198f13faa7e7671cc3d2323d1c787416e8dfe266fdfec91611346918890869061243b565b60405180910390a25060018055979650505050505050565b6000818152600960205260409020548190811461138d5760405162461bcd60e51b815260040161052b906126b5565b600260015414156113b05760405162461bcd60e51b815260040161052b906127f8565b6002600155346113d25760405162461bcd60e51b815260040161052b9061266a565b6040516331a9108f60e11b815233907f00000000000000000000000000000000000000000000000000000000000000006001600160a01b031690636352211e90611420908690600401612880565b60206040518083038186803b15801561143857600080fd5b505afa15801561144c573d6000803e3d6000fd5b505050506040513d601f19601f820116820180604052508101906114709190612127565b6001600160a01b031614156114975760405162461bcd60e51b815260040161052b906124bb565b6114a16004611fa3565b60006114ad6004611fac565b905034600560008282546114c1919061299f565b9091555050604080516060810182528281523460208083018281523384860181815260008a8152600a85528781208982529094529286902094518555905160018501559051600290930180546001600160a01b0319166001600160a01b0390941693909317909255915183927f8335194a78ed1f7eef3da42ceddf79ade8dc1d12fbb0623324b46c076cae60e8926107f792612889565b60065490565b6000818152600960205260409020548190811461158d5760405162461bcd60e51b815260040161052b906126b5565b6040516331a9108f60e11b8152829033907f00000000000000000000000000000000000000000000000000000000000000006001600160a01b031690636352211e906115dd908590600401612880565b60206040518083038186803b1580156115f557600080fd5b505afa158015611609573d6000803e3d6000fd5b505050506040513d601f19601f8201168201806040525081019061162d9190612127565b6001600160a01b0316146116535760405162461bcd60e51b815260040161052b90612476565b826000808281526009602052604090206006015460ff16600181111561168957634e487b7160e01b600052602160045260246000fd5b146116a65760405162461bcd60e51b815260040161052b90612582565b7f00000000000000000000000000000000000000000000000000000000000000006001600160a01b031663a22cb4656116dd611f4f565b60006040518363ffffffff1660e01b81526004016116fc9291906123f0565b600060405180830381600087803b15801561171657600080fd5b505af115801561172a573d6000803e3d6000fd5b50505060008581526009602052604080822060038101929092556006909101805460ff19166001179055517f8fa1bb7b99ca89bcbb44993cdfed439877555de6e6606cee547d631434b7e1819150611783908690612880565b60405180910390a150505050565b6001600160a01b03831633146117b95760405162461bcd60e51b815260040161052b906127b6565b6001600160a01b0383166000908152600b602052604090206109c9906001018383611fb0565b600c5490565b6117ed611f4f565b6001600160a01b03166117fe610d8d565b6001600160a01b0316146118245760405162461bcd60e51b815260040161052b90612781565b600260015414156118475760405162461bcd60e51b815260040161052b906127f8565b600260015560078054600090915561185f81476129b7565b50604051339082156108fc029083906000818181858888f1935050505015801561188d573d6000803e3d6000fd5b507f4e60501f434af3840e3d76dabba18982cf1ff93cad68dfa8daebca971baa2a1a6007546040516118bf9190612880565b60405180910390a15060018055565b600d818154811061081857600080fd5b6118e86002611fa3565b60006118f46002611fac565b905060004290506040518060c0016040528083815260200187878080601f016020809104026020016040519081016040528093929190818152602001838380828437600092019190915250505090825250604080516020601f8801819004810282018101909252868152918101919087908790819084018382808284376000920191909152505050908252506020808201849052336040808401919091528051601f8c018390048302810183019091528a8152606090920191908b908b90819084018382808284376000920182905250939094525050848152600860209081526040909120835181558382015180519193506119f7926001850192910190612034565b5060408201518051611a13916002840191602090910190612034565b506060820151600382015560808201516004820180546001600160a01b0319166001600160a01b0390921691909117905560a08201518051611a5f916005840191602090910190612034565b5050600c80546001810182556000919091527fdf6966c971051c3d54ec59162606531493a51404a002842f56009d7e5cf4a8c7018390555060405182907f15f0768ddb29abfbb7cb3b54a0f082e5b441cf04715c8cb8226cc866fbfbba5b90611acb9084903390612889565b60405180910390a25050505050505050565b60008281526009602052604090205482908114611b0c5760405162461bcd60e51b815260040161052b906126b5565b6000838152600a60209081526040808320858452909152902054839083908114611b485760405162461bcd60e51b815260040161052b90612505565b60026001541415611b6b5760405162461bcd60e51b815260040161052b906127f8565b600260018181556000878152600a602090815260408083208984529091529020918201549101546005546001600160a01b0390921691811115611bc05760405162461bcd60e51b815260040161052b906125c3565b8060056000828254611bd291906129b7565b90915550611be2905081476129b7565b506040516001600160a01b0383169082156108fc029083906000818181858888f19350505050158015611c19573d6000803e3d6000fd5b506000878152600a602090815260408083208984529091528082208281556001810192909255600290910180546001600160a01b031916905551869088907f26ad9a48a900ea965adb7d7fd3f9552c907540683bac6687640cac5a933b9c669061107a9033906123b8565b611c8c611f4f565b6001600160a01b0316611c9d610d8d565b6001600160a01b031614611cc35760405162461bcd60e51b815260040161052b90612781565b6001600160a01b038116611ce95760405162461bcd60e51b815260040161052b9061253c565b611cf281611f53565b50565b611cfd611f4f565b6001600160a01b0316611d0e610d8d565b6001600160a01b031614611d345760405162461bcd60e51b815260040161052b90612781565b60068190556040517f5fb4654f1efe30c6141eaa6855ffcb27e0b361d899b05e21b1a4d0b3e71e14db90611d69908390612880565b60405180910390a150565b60086020526000908152604090208054600182018054919291611d96906129ce565b80601f0160208091040260200160405190810160405280929190818152602001828054611dc2906129ce565b8015611e0f5780601f10611de457610100808354040283529160200191611e0f565b820191906000526020600020905b815481529060010190602001808311611df257829003601f168201915b505050505090806002018054611e24906129ce565b80601f0160208091040260200160405190810160405280929190818152602001828054611e50906129ce565b8015611e9d5780601f10611e7257610100808354040283529160200191611e9d565b820191906000526020600020905b815481529060010190602001808311611e8057829003601f168201915b5050505060038301546004840154600585018054949592946001600160a01b03909216935090611ecc906129ce565b80601f0160208091040260200160405190810160405280929190818152602001828054611ef8906129ce565b8015611f455780601f10611f1a57610100808354040283529160200191611f45565b820191906000526020600020905b815481529060010190602001808311611f2857829003601f168201915b5050505050905086565b3390565b600080546001600160a01b038381166001600160a01b0319831681178455604051919092169283917f8be0079c531659141344cd1fd0a4f28419497f9722a3daafe3b4186f6b6457e09190a35050565b80546001019055565b5490565b828054611fbc906129ce565b90600052602060002090601f016020900481019282611fde5760008555612024565b82601f10611ff75782800160ff19823516178555612024565b82800160010185558215612024579182015b82811115612024578235825591602001919060010190612009565b506120309291506120a8565b5090565b828054612040906129ce565b90600052602060002090601f0160209004810192826120625760008555612024565b82601f1061207b57805160ff1916838001178555612024565b82800160010185558215612024579182015b8281111561202457825182559160200191906001019061208d565b5b8082111561203057600081556001016120a9565b60008083601f8401126120ce578081fd5b50813567ffffffffffffffff8111156120e5578182fd5b6020830191508360208285010111156120fd57600080fd5b9250929050565b600060208284031215612115578081fd5b813561212081612a35565b9392505050565b600060208284031215612138578081fd5b815161212081612a35565b600080600060408486031215612157578182fd5b833561216281612a35565b9250602084013567ffffffffffffffff81111561217d578283fd5b612189868287016120bd565b9497909650939450505050565b600080600080600080606087890312156121ae578182fd5b863567ffffffffffffffff808211156121c5578384fd5b6121d18a838b016120bd565b909850965060208901359150808211156121e9578384fd5b6121f58a838b016120bd565b9096509450604089013591508082111561220d578384fd5b5061221a89828a016120bd565b979a9699509497509295939492505050565b60008060008060008060808789031215612244578182fd5b863567ffffffffffffffff8082111561225b578384fd5b818901915089601f83011261226e578384fd5b81358181111561228057612280612a1f565b604051601f8201601f19908116603f011681019083821181831017156122a8576122a8612a1f565b816040528281528c60208487010111156122c0578687fd5b826020860160208301378660208483010152809a5050505060208901359150808211156122eb578384fd5b6122f78a838b016120bd565b9097509550604089013591508082111561230f578384fd5b5061231c89828a016120bd565b979a9699509497949695606090950135949350505050565b600060208284031215612345578081fd5b5035919050565b6000806040838503121561235e578182fd5b50508035926020909101359150565b60008151808452815b8181101561239257602081850181015186830182015201612376565b818111156123a35782602083870101525b50601f01601f19169290920160200192915050565b6001600160a01b0391909116815260200190565b6001600160a01b039384168152919092166020820152604081019190915260600190565b6001600160a01b039290921682521515602082015260400190565b600060018060a01b038516825283602083015260606040830152612432606083018461236d565b95945050505050565b9283526020830191909152604082015260600190565b600060408252612464604083018561236d565b8281036020840152612432818561236d565b60208082526025908201527f4d61726b6574706c6163653a206974656d206973206e6f74206f776e656420626040820152647920796f7560d81b606082015260800190565b6020808252602a908201527f4d61726b6574706c6163653a20796f752063616e206e6f742062696420796f7560408201526972206f776e206974656d60b01b606082015260800190565b60208082526018908201527f4d61726b6574706c6163653a206e6f2073756368206269640000000000000000604082015260600190565b60208082526026908201527f4f776e61626c653a206e6577206f776e657220697320746865207a65726f206160408201526564647265737360d01b606082015260800190565b60208082526021908201527f4d61726b6574706c6163653a206974656d206973206e6f7420666f722073616c6040820152606560f81b606082015260800190565b6020808252603c908201527f4d61726b6574706c6163653a205472616e73616374696f6e206661696c65642e60408201527f20436f6e747261637420686173206e6f7420656e6f7567682077656900000000606082015260800190565b6020808252602a908201527f4d61726b6574706c6163653a20796f752063616e206e6f742062757920796f7560408201526972206f776e206974656d60b01b606082015260800190565b6020808252602b908201527f4d61726b6574706c6163653a206f66666572206d757374206265206174206c6560408201526a617374206f6e652077656960a81b606082015260800190565b60208082526019908201527f4d61726b6574706c6163653a206e6f2073756368206974656d00000000000000604082015260600190565b60208082526023908201527f4d61726b6574706c6163653a206e6f20636f6c6c656374696f6e206f6620796f60408201526275727360e81b606082015260800190565b60208082526032908201527f4d61726b6574706c6163653a20616d6f756e74206d75737420626520657175616040820152716c20746f206c697374696e6720707269636560701b606082015260800190565b6020808252818101527f4f776e61626c653a2063616c6c6572206973206e6f7420746865206f776e6572604082015260600190565b60208082526022908201527f4d61726b6574706c6163653a206e616d65206e6f74206f776e656420627920796040820152616f7560f01b606082015260800190565b6020808252601f908201527f5265656e7472616e637947756172643a207265656e7472616e742063616c6c00604082015260600190565b60208082526031908201527f4d61726b6574706c6163653a207072696365206d75737420626520657175616c60408201527020746f206c697374696e6720707269636560781b606082015260800190565b90815260200190565b9182526001600160a01b0316602082015260400190565b600087825260c060208301526128b960c083018861236d565b82810360408401526128cb818861236d565b606084018790526001600160a01b038616608085015283810360a085015290506128f5818561236d565b9998505050505050505050565b600088825260e0602083015261291b60e083018961236d565b828103604084015261292d818961236d565b9150508560608301528460808301528360a08301526002831061296057634e487b7160e01b600052602160045260246000fd5b8260c083015298975050505050505050565b918252602082015260400190565b92835260208301919091526001600160a01b0316604082015260600190565b600082198211156129b2576129b2612a09565b500190565b6000828210156129c9576129c9612a09565b500390565b6002810460018216806129e257607f821691505b60208210811415612a0357634e487b7160e01b600052602260045260246000fd5b50919050565b634e487b7160e01b600052601160045260246000fd5b634e487b7160e01b600052604160045260246000fd5b6001600160a01b0381168114611cf257600080fdfea2646970667358221220ff3d67dbc4acd8b4316c739bd9e6af4259bafa05bd970a68e3ab740b39ec367264736f6c63430008010033",
  "linkReferences": {},
  "deployedLinkReferences": {}
}